{
  "contractName": "MissionsSoS",
  "abi": [
    {
      "constant": true,
      "inputs": [],
      "name": "totalMission",
      "outputs": [
        {
          "internalType": "uint256",
          "name": "",
          "type": "uint256"
        }
      ],
      "payable": false,
      "stateMutability": "view",
      "type": "function"
    },
    {
      "constant": false,
      "inputs": [
        {
          "internalType": "string",
          "name": "_missionDescription",
          "type": "string"
        },
        {
          "internalType": "string",
          "name": "_missionTag",
          "type": "string"
        },
        {
          "internalType": "uint256",
          "name": "_missionCodeFather",
          "type": "uint256"
        }
      ],
      "name": "setMission",
      "outputs": [],
      "payable": false,
      "stateMutability": "nonpayable",
      "type": "function"
    },
    {
      "constant": true,
      "inputs": [
        {
          "internalType": "uint256",
          "name": "_missionCode",
          "type": "uint256"
        }
      ],
      "name": "getMission",
      "outputs": [
        {
          "internalType": "uint256",
          "name": "",
          "type": "uint256"
        },
        {
          "internalType": "string",
          "name": "",
          "type": "string"
        },
        {
          "internalType": "address",
          "name": "",
          "type": "address"
        },
        {
          "internalType": "string",
          "name": "",
          "type": "string"
        },
        {
          "internalType": "uint256",
          "name": "",
          "type": "uint256"
        }
      ],
      "payable": false,
      "stateMutability": "view",
      "type": "function"
    },
    {
      "constant": true,
      "inputs": [],
      "name": "totalService",
      "outputs": [
        {
          "internalType": "uint256",
          "name": "",
          "type": "uint256"
        }
      ],
      "payable": false,
      "stateMutability": "view",
      "type": "function"
    },
    {
      "constant": false,
      "inputs": [
        {
          "internalType": "string",
          "name": "_serviceDescription",
          "type": "string"
        },
        {
          "internalType": "uint256",
          "name": "_serviceHTTPMethod",
          "type": "uint256"
        },
        {
          "internalType": "string",
          "name": "serviceURL",
          "type": "string"
        },
        {
          "internalType": "uint256",
          "name": "_serviceContentType",
          "type": "uint256"
        },
        {
          "internalType": "uint256",
          "name": "_serviceRAWDataType",
          "type": "uint256"
        }
      ],
      "name": "setService",
      "outputs": [],
      "payable": false,
      "stateMutability": "nonpayable",
      "type": "function"
    },
    {
      "constant": true,
      "inputs": [
        {
          "internalType": "uint256",
          "name": "_serviceCode",
          "type": "uint256"
        }
      ],
      "name": "getService",
      "outputs": [
        {
          "internalType": "uint256",
          "name": "",
          "type": "uint256"
        },
        {
          "internalType": "string",
          "name": "",
          "type": "string"
        },
        {
          "internalType": "enum MissionsSoS.HTTPMethod",
          "name": "",
          "type": "uint8"
        },
        {
          "internalType": "string",
          "name": "",
          "type": "string"
        },
        {
          "internalType": "enum MissionsSoS.ContentType",
          "name": "",
          "type": "uint8"
        },
        {
          "internalType": "enum MissionsSoS.RAWDataType",
          "name": "",
          "type": "uint8"
        },
        {
          "internalType": "address",
          "name": "",
          "type": "address"
        }
      ],
      "payable": false,
      "stateMutability": "view",
      "type": "function"
    },
    {
      "constant": true,
      "inputs": [
        {
          "internalType": "uint256",
          "name": "_serviceCode",
          "type": "uint256"
        }
      ],
      "name": "totalServiceParameter",
      "outputs": [
        {
          "internalType": "uint256",
          "name": "",
          "type": "uint256"
        }
      ],
      "payable": false,
      "stateMutability": "view",
      "type": "function"
    },
    {
      "constant": false,
      "inputs": [
        {
          "internalType": "uint256",
          "name": "_serviceCode",
          "type": "uint256"
        },
        {
          "internalType": "string",
          "name": "_parameterKey",
          "type": "string"
        },
        {
          "internalType": "string",
          "name": "_parameterValue",
          "type": "string"
        },
        {
          "internalType": "string",
          "name": "_parameterDescription",
          "type": "string"
        }
      ],
      "name": "setServiceParameter",
      "outputs": [
        {
          "internalType": "bool",
          "name": "",
          "type": "bool"
        }
      ],
      "payable": false,
      "stateMutability": "nonpayable",
      "type": "function"
    },
    {
      "constant": true,
      "inputs": [
        {
          "internalType": "uint256",
          "name": "_serviceCode",
          "type": "uint256"
        },
        {
          "internalType": "uint256",
          "name": "_parameterCode",
          "type": "uint256"
        }
      ],
      "name": "getServiceParameter",
      "outputs": [
        {
          "internalType": "string",
          "name": "",
          "type": "string"
        },
        {
          "internalType": "string",
          "name": "",
          "type": "string"
        },
        {
          "internalType": "string",
          "name": "",
          "type": "string"
        }
      ],
      "payable": false,
      "stateMutability": "view",
      "type": "function"
    },
    {
      "constant": true,
      "inputs": [],
      "name": "totalConstituent",
      "outputs": [
        {
          "internalType": "uint256",
          "name": "",
          "type": "uint256"
        }
      ],
      "payable": false,
      "stateMutability": "view",
      "type": "function"
    },
    {
      "constant": false,
      "inputs": [],
      "name": "setConstituent",
      "outputs": [],
      "payable": false,
      "stateMutability": "nonpayable",
      "type": "function"
    },
    {
      "constant": true,
      "inputs": [
        {
          "internalType": "uint256",
          "name": "_constituentCode",
          "type": "uint256"
        }
      ],
      "name": "getConstituent",
      "outputs": [
        {
          "internalType": "uint256",
          "name": "",
          "type": "uint256"
        },
        {
          "internalType": "address",
          "name": "",
          "type": "address"
        }
      ],
      "payable": false,
      "stateMutability": "view",
      "type": "function"
    },
    {
      "constant": false,
      "inputs": [
        {
          "internalType": "uint256",
          "name": "_constituentCode",
          "type": "uint256"
        },
        {
          "internalType": "string",
          "name": "_parameterKey",
          "type": "string"
        },
        {
          "internalType": "string",
          "name": "_parameterValue",
          "type": "string"
        },
        {
          "internalType": "string",
          "name": "_parameterDescription",
          "type": "string"
        }
      ],
      "name": "setConstituentParameter",
      "outputs": [
        {
          "internalType": "bool",
          "name": "",
          "type": "bool"
        }
      ],
      "payable": false,
      "stateMutability": "nonpayable",
      "type": "function"
    },
    {
      "constant": true,
      "inputs": [
        {
          "internalType": "uint256",
          "name": "_constituentCode",
          "type": "uint256"
        }
      ],
      "name": "totalConstituentParameter",
      "outputs": [
        {
          "internalType": "uint256",
          "name": "",
          "type": "uint256"
        }
      ],
      "payable": false,
      "stateMutability": "view",
      "type": "function"
    },
    {
      "constant": true,
      "inputs": [
        {
          "internalType": "uint256",
          "name": "_constituentCode",
          "type": "uint256"
        },
        {
          "internalType": "uint256",
          "name": "_parameterCode",
          "type": "uint256"
        }
      ],
      "name": "getConstituentParameter",
      "outputs": [
        {
          "internalType": "string",
          "name": "",
          "type": "string"
        },
        {
          "internalType": "string",
          "name": "",
          "type": "string"
        },
        {
          "internalType": "string",
          "name": "",
          "type": "string"
        }
      ],
      "payable": false,
      "stateMutability": "view",
      "type": "function"
    },
    {
      "constant": false,
      "inputs": [
        {
          "internalType": "uint256",
          "name": "_constituentCode",
          "type": "uint256"
        },
        {
          "internalType": "uint256",
          "name": "_serviceCode",
          "type": "uint256"
        }
      ],
      "name": "setConstituentService",
      "outputs": [
        {
          "internalType": "bool",
          "name": "",
          "type": "bool"
        }
      ],
      "payable": false,
      "stateMutability": "nonpayable",
      "type": "function"
    },
    {
      "constant": true,
      "inputs": [
        {
          "internalType": "uint256",
          "name": "_constituentCode",
          "type": "uint256"
        }
      ],
      "name": "totalConstituentService",
      "outputs": [
        {
          "internalType": "uint256",
          "name": "",
          "type": "uint256"
        }
      ],
      "payable": false,
      "stateMutability": "view",
      "type": "function"
    }
  ],
  "bytecode": "0x608060405234801561001057600080fd5b50612137806100206000396000f3fe608060405234801561001057600080fd5b506004361061010b5760003560e01c8063a11e052f116100a2578063ccf451aa11610071578063ccf451aa14610b1e578063d23ef6a214610ca7578063d970ab2914610cb1578063eb2b94b514610cf3578063ef0e239b14610e475761010b565b8063a11e052f14610710578063ad3eb5151461091b578063b8f6786714610990578063bb286a8514610b005761010b565b80638cd105b4116100de5780638cd105b4146104d7578063934fda5414610519578063994d3377146105695780639da1e84d146106f25761010b565b806302ea5d1a14610110578063080835371461012e5780632f4a5cf3146103395780635820a70e1461037b575b600080fd5b610118610fd3565b6040518082815260200191505060405180910390f35b61031f6004803603608081101561014457600080fd5b81019080803590602001909291908035906020019064010000000081111561016b57600080fd5b82018360208201111561017d57600080fd5b8035906020019184600183028401116401000000008311171561019f57600080fd5b91908080601f016020809104026020016040519081016040528093929190818152602001838380828437600081840152601f19601f8201169050808301925050505050505091929192908035906020019064010000000081111561020257600080fd5b82018360208201111561021457600080fd5b8035906020019184600183028401116401000000008311171561023657600080fd5b91908080601f016020809104026020016040519081016040528093929190818152602001838380828437600081840152601f19601f8201169050808301925050505050505091929192908035906020019064010000000081111561029957600080fd5b8201836020820111156102ab57600080fd5b803590602001918460018302840111640100000000831117156102cd57600080fd5b91908080601f016020809104026020016040519081016040528093929190818152602001838380828437600081840152601f19601f820116905080830192505050505050509192919290505050610fdd565b604051808215151515815260200191505060405180910390f35b6103656004803603602081101561034f57600080fd5b810190808035906020019092919050505061115c565b6040518082815260200191505060405180910390f35b6104d56004803603606081101561039157600080fd5b81019080803590602001906401000000008111156103ae57600080fd5b8201836020820111156103c057600080fd5b803590602001918460018302840111640100000000831117156103e257600080fd5b91908080601f016020809104026020016040519081016040528093929190818152602001838380828437600081840152601f19601f8201169050808301925050505050505091929192908035906020019064010000000081111561044557600080fd5b82018360208201111561045757600080fd5b8035906020019184600183028401116401000000008311171561047957600080fd5b91908080601f016020809104026020016040519081016040528093929190818152602001838380828437600081840152601f19601f82011690508083019250505050505050919291929080359060200190929190505050611179565b005b610503600480360360208110156104ed57600080fd5b8101908080359060200190929190505050611285565b6040518082815260200191505060405180910390f35b61054f6004803603604081101561052f57600080fd5b8101908080359060200190929190803590602001909291905050506112a2565b604051808215151515815260200191505060405180910390f35b61059f6004803603604081101561057f57600080fd5b8101908080359060200190929190803590602001909291905050506112ae565b60405180806020018060200180602001848103845287818151815260200191508051906020019080838360005b838110156105e75780820151818401526020810190506105cc565b50505050905090810190601f1680156106145780820380516001836020036101000a031916815260200191505b50848103835286818151815260200191508051906020019080838360005b8381101561064d578082015181840152602081019050610632565b50505050905090810190601f16801561067a5780820380516001836020036101000a031916815260200191505b50848103825285818151815260200191508051906020019080838360005b838110156106b3578082015181840152602081019050610698565b50505050905090810190601f1680156106e05780820380516001836020036101000a031916815260200191505b50965050505050505060405180910390f35b6106fa611521565b6040518082815260200191505060405180910390f35b6109016004803603608081101561072657600080fd5b81019080803590602001909291908035906020019064010000000081111561074d57600080fd5b82018360208201111561075f57600080fd5b8035906020019184600183028401116401000000008311171561078157600080fd5b91908080601f016020809104026020016040519081016040528093929190818152602001838380828437600081840152601f19601f820116905080830192505050505050509192919290803590602001906401000000008111156107e457600080fd5b8201836020820111156107f657600080fd5b8035906020019184600183028401116401000000008311171561081857600080fd5b91908080601f016020809104026020016040519081016040528093929190818152602001838380828437600081840152601f19601f8201169050808301925050505050505091929192908035906020019064010000000081111561087b57600080fd5b82018360208201111561088d57600080fd5b803590602001918460018302840111640100000000831117156108af57600080fd5b91908080601f016020809104026020016040519081016040528093929190818152602001838380828437600081840152601f19601f82011690508083019250505050505050919291929050505061152a565b604051808215151515815260200191505060405180910390f35b6109476004803603602081101561093157600080fd5b81019080803590602001909291905050506116a9565b604051808381526020018273ffffffffffffffffffffffffffffffffffffffff1673ffffffffffffffffffffffffffffffffffffffff1681526020019250505060405180910390f35b610afe600480360360a08110156109a657600080fd5b81019080803590602001906401000000008111156109c357600080fd5b8201836020820111156109d557600080fd5b803590602001918460018302840111640100000000831117156109f757600080fd5b91908080601f016020809104026020016040519081016040528093929190818152602001838380828437600081840152601f19601f8201169050808301925050505050505091929192908035906020019092919080359060200190640100000000811115610a6457600080fd5b820183602082011115610a7657600080fd5b80359060200191846001830284011164010000000083111715610a9857600080fd5b91908080601f016020809104026020016040519081016040528093929190818152602001838380828437600081840152601f19601f82011690508083019250505050505050919291929080359060200190929190803590602001909291905050506116ed565b005b610b086118bb565b6040518082815260200191505060405180910390f35b610b5460048036036040811015610b3457600080fd5b8101908080359060200190929190803590602001909291905050506118c5565b60405180806020018060200180602001848103845287818151815260200191508051906020019080838360005b83811015610b9c578082015181840152602081019050610b81565b50505050905090810190601f168015610bc95780820380516001836020036101000a031916815260200191505b50848103835286818151815260200191508051906020019080838360005b83811015610c02578082015181840152602081019050610be7565b50505050905090810190601f168015610c2f5780820380516001836020036101000a031916815260200191505b50848103825285818151815260200191508051906020019080838360005b83811015610c68578082015181840152602081019050610c4d565b50505050905090810190601f168015610c955780820380516001836020036101000a031916815260200191505b50965050505050505060405180910390f35b610caf611b38565b005b610cdd60048036036020811015610cc757600080fd5b8101908080359060200190929190505050611c07565b6040518082815260200191505060405180910390f35b610d1f60048036036020811015610d0957600080fd5b8101908080359060200190929190505050611c24565b60405180868152602001806020018573ffffffffffffffffffffffffffffffffffffffff1673ffffffffffffffffffffffffffffffffffffffff16815260200180602001848152602001838103835287818151815260200191508051906020019080838360005b83811015610da1578082015181840152602081019050610d86565b50505050905090810190601f168015610dce5780820380516001836020036101000a031916815260200191505b50838103825285818151815260200191508051906020019080838360005b83811015610e07578082015181840152602081019050610dec565b50505050905090810190601f168015610e345780820380516001836020036101000a031916815260200191505b5097505050505050505060405180910390f35b610e7360048036036020811015610e5d57600080fd5b8101908080359060200190929190505050611df4565b6040518088815260200180602001876004811115610e8d57fe5b60ff16815260200180602001866005811115610ea557fe5b60ff168152602001856005811115610eb957fe5b60ff1681526020018473ffffffffffffffffffffffffffffffffffffffff1673ffffffffffffffffffffffffffffffffffffffff168152602001838103835289818151815260200191508051906020019080838360005b83811015610f2b578082015181840152602081019050610f10565b50505050905090810190601f168015610f585780820380516001836020036101000a031916815260200191505b50838103825287818151815260200191508051906020019080838360005b83811015610f91578082015181840152602081019050610f76565b50505050905090810190601f168015610fbe5780820380516001836020036101000a031916815260200191505b50995050505050505050505060405180910390f35b6000600254905090565b60006003600086815260200190815260200160002060040160029054906101000a900473ffffffffffffffffffffffffffffffffffffffff1673ffffffffffffffffffffffffffffffffffffffff163373ffffffffffffffffffffffffffffffffffffffff16141561114f5761105161203c565b60405180606001604052808681526020018581526020018481525090506110956001600460008981526020019081526020016000205461202290919063ffffffff16565b6004600088815260200190815260200160002081905550600560008781526020019081526020016000208190806001815401808255809150509060018203906000526020600020906003020160009091929091909150600082015181600001908051906020019061110792919061205d565b50602082015181600101908051906020019061112492919061205d565b50604082015181600201908051906020019061114192919061205d565b505050506001915050611154565b600090505b949350505050565b6000600a6000838152602001908152602001600020549050919050565b61118f600160005461202290919063ffffffff16565b6000819055506040518060a0016040528060005481526020018481526020013373ffffffffffffffffffffffffffffffffffffffff16815260200183815260200182815250600160008054815260200190815260200160002060008201518160000155602082015181600101908051906020019061120e92919061205d565b5060408201518160020160006101000a81548173ffffffffffffffffffffffffffffffffffffffff021916908373ffffffffffffffffffffffffffffffffffffffff160217905550606082015181600301908051906020019061127292919061205d565b5060808201518160040155905050505050565b600060046000838152602001908152602001600020549050919050565b60006001905092915050565b6060806060600b600086815260200190815260200160002084815481106112d157fe5b9060005260206000209060030201600001600b6000878152602001908152602001600020858154811061130057fe5b9060005260206000209060030201600101600b6000888152602001908152602001600020868154811061132f57fe5b9060005260206000209060030201600201828054600181600116156101000203166002900480601f0160208091040260200160405190810160405280929190818152602001828054600181600116156101000203166002900480156113d55780601f106113aa576101008083540402835291602001916113d5565b820191906000526020600020905b8154815290600101906020018083116113b857829003601f168201915b50505050509250818054600181600116156101000203166002900480601f0160208091040260200160405190810160405280929190818152602001828054600181600116156101000203166002900480156114715780601f1061144657610100808354040283529160200191611471565b820191906000526020600020905b81548152906001019060200180831161145457829003601f168201915b50505050509150808054600181600116156101000203166002900480601f01602080910402602001604051908101604052809291908181526020018280546001816001161561010002031660029004801561150d5780601f106114e25761010080835404028352916020019161150d565b820191906000526020600020905b8154815290600101906020018083116114f057829003601f168201915b505050505090509250925092509250925092565b60008054905090565b60006009600086815260200190815260200160002060010160009054906101000a900473ffffffffffffffffffffffffffffffffffffffff1673ffffffffffffffffffffffffffffffffffffffff163373ffffffffffffffffffffffffffffffffffffffff16141561169c5761159e61203c565b60405180606001604052808681526020018581526020018481525090506115e26001600a60008981526020019081526020016000205461202290919063ffffffff16565b600a600088815260200190815260200160002081905550600b60008781526020019081526020016000208190806001815401808255809150509060018203906000526020600020906003020160009091929091909150600082015181600001908051906020019061165492919061205d565b50602082015181600101908051906020019061167192919061205d565b50604082015181600201908051906020019061168e92919061205d565b5050505060019150506116a1565b600090505b949350505050565b600080826009600085815260200190815260200160002060010160009054906101000a900473ffffffffffffffffffffffffffffffffffffffff1691509150915091565b611703600160025461202290919063ffffffff16565b6002819055506040518060e00160405280600254815260200186815260200185600481111561172e57fe5b600481111561173957fe5b815260200184815260200183600581111561175057fe5b600581111561175b57fe5b815260200182600581111561176c57fe5b600581111561177757fe5b81526020013373ffffffffffffffffffffffffffffffffffffffff168152506003600060025481526020019081526020016000206000820151816000015560208201518160010190805190602001906117d192919061205d565b5060408201518160020160006101000a81548160ff021916908360048111156117f657fe5b0217905550606082015181600301908051906020019061181792919061205d565b5060808201518160040160006101000a81548160ff0219169083600581111561183c57fe5b021790555060a08201518160040160016101000a81548160ff0219169083600581111561186557fe5b021790555060c08201518160040160026101000a81548173ffffffffffffffffffffffffffffffffffffffff021916908373ffffffffffffffffffffffffffffffffffffffff1602179055509050505050505050565b6000600854905090565b60608060606005600086815260200190815260200160002084815481106118e857fe5b906000526020600020906003020160000160056000878152602001908152602001600020858154811061191757fe5b906000526020600020906003020160010160056000888152602001908152602001600020868154811061194657fe5b9060005260206000209060030201600201828054600181600116156101000203166002900480601f0160208091040260200160405190810160405280929190818152602001828054600181600116156101000203166002900480156119ec5780601f106119c1576101008083540402835291602001916119ec565b820191906000526020600020905b8154815290600101906020018083116119cf57829003601f168201915b50505050509250818054600181600116156101000203166002900480601f016020809104026020016040519081016040528092919081815260200182805460018160011615610100020316600290048015611a885780601f10611a5d57610100808354040283529160200191611a88565b820191906000526020600020905b815481529060010190602001808311611a6b57829003601f168201915b50505050509150808054600181600116156101000203166002900480601f016020809104026020016040519081016040528092919081815260200182805460018160011615610100020316600290048015611b245780601f10611af957610100808354040283529160200191611b24565b820191906000526020600020905b815481529060010190602001808311611b0757829003601f168201915b505050505090509250925092509250925092565b611b4e600160085461202290919063ffffffff16565b6008819055506000600a6000600854815260200190815260200160002081905550604051806040016040528060085481526020013373ffffffffffffffffffffffffffffffffffffffff168152506009600060085481526020019081526020016000206000820151816000015560208201518160010160006101000a81548173ffffffffffffffffffffffffffffffffffffffff021916908373ffffffffffffffffffffffffffffffffffffffff160217905550905050565b6000600c6000838152602001908152602001600020549050919050565b6000606060006060600085600160008881526020019081526020016000206001016001600089815260200190815260200160002060020160009054906101000a900473ffffffffffffffffffffffffffffffffffffffff16600160008a8152602001908152602001600020600301600160008b815260200190815260200160002060040154838054600181600116156101000203166002900480601f016020809104026020016040519081016040528092919081815260200182805460018160011615610100020316600290048015611d3e5780601f10611d1357610100808354040283529160200191611d3e565b820191906000526020600020905b815481529060010190602001808311611d2157829003601f168201915b50505050509350818054600181600116156101000203166002900480601f016020809104026020016040519081016040528092919081815260200182805460018160011615610100020316600290048015611dda5780601f10611daf57610100808354040283529160200191611dda565b820191906000526020600020905b815481529060010190602001808311611dbd57829003601f168201915b505050505091509450945094509450945091939590929450565b6000606060006060600080600087600360008a8152602001908152602001600020600101600360008b815260200190815260200160002060020160009054906101000a900460ff16600360008c8152602001908152602001600020600301600360008d815260200190815260200160002060040160009054906101000a900460ff16600360008e815260200190815260200160002060040160019054906101000a900460ff16600360008f815260200190815260200160002060040160029054906101000a900473ffffffffffffffffffffffffffffffffffffffff16858054600181600116156101000203166002900480601f016020809104026020016040519081016040528092919081815260200182805460018160011615610100020316600290048015611f665780601f10611f3b57610100808354040283529160200191611f66565b820191906000526020600020905b815481529060010190602001808311611f4957829003601f168201915b50505050509550838054600181600116156101000203166002900480601f0160208091040260200160405190810160405280929190818152602001828054600181600116156101000203166002900480156120025780601f10611fd757610100808354040283529160200191612002565b820191906000526020600020905b815481529060010190602001808311611fe557829003601f168201915b505050505093509650965096509650965096509650919395979092949650565b600081830190508281101561203357fe5b80905092915050565b60405180606001604052806060815260200160608152602001606081525090565b828054600181600116156101000203166002900490600052602060002090601f016020900481019282601f1061209e57805160ff19168380011785556120cc565b828001600101855582156120cc579182015b828111156120cb5782518255916020019190600101906120b0565b5b5090506120d991906120dd565b5090565b6120ff91905b808211156120fb5760008160009055506001016120e3565b5090565b9056fea265627a7a7231582041fd5f42198dbfccb2187b018bc107182f93cf7c6987f551dc40c036b4b18ded64736f6c63430005100032",
  "source": "pragma solidity  >=0.5.16 <0.7.0;\r\n\r\nlibrary SafeMath {\r\n    function add(uint256 a, uint256 b) internal pure returns (uint256 c) {\r\n        c = a + b;\r\n        assert(c >= a);\r\n        return c;\r\n    }\r\n    function sub(uint256 a, uint256 b) internal pure returns (uint256) {\r\n        assert(b <= a);\r\n        return a - b;\r\n    }\r\n    function mul(uint256 a, uint256 b) internal pure returns (uint256 c) {\r\n        if (a == 0) {\r\n            return 0;\r\n        }\r\n        c = a * b;\r\n        assert(c / a == b);\r\n        return c;\r\n    }\r\n    function div(uint256 a, uint256 b) internal pure returns (uint256) {\r\n        assert(b>0);\r\n        return a / b;\r\n    }\r\n}\r\n\r\ncontract MissionsSoS{\r\n    \r\n    using SafeMath for uint;\r\n\r\n    enum HTTPMethod  {GET, POST, PATCH, PUT, DELETE}\r\n    enum ContentType {none, data, URL_encoded, raw, binary, GraphQL}\r\n    enum RAWDataType {none, Text, JavaScript, JSON, HTML, XML}\r\n\r\n   struct Mission {\r\n        uint missionCode;\r\n        string missionDescription;\r\n        address missionOwner;\r\n        string missionTag;\r\n        uint missionCodeFather;\r\n    }\r\n\r\n    struct Parameter {\r\n        string parameterKey;\r\n        string parameterValue;\r\n        string parameterDescription;\r\n\r\n    }\r\n\r\n    struct Constituent {\r\n        uint constituentCode;\r\n        address constituentOwner;\r\n    }\r\n\r\n    struct Service {\r\n        uint serviceCode;\r\n        string serviceDescription;\r\n        HTTPMethod serviceHTTPMethod;\r\n        string serviceURL;\r\n        ContentType serviceContentType;\r\n        RAWDataType serviceRAWDataType;\r\n        address serviceOwner;\r\n    }\r\n    \r\n    //--------Mission---------\r\n    uint private _totalMission;\r\n    mapping(uint => Mission) private missionMap;\r\n \r\n    //---------Service-------\r\n    uint private _totalService;\r\n    mapping(uint => Service) private serviceMap;\r\n    //-------Service Parameter-------\r\n    mapping(uint => uint) private _totalServiceParameter;\r\n    mapping(uint => Parameter[]) private serviceParameterMap;\r\n    //-------Service Mission-------\r\n    mapping(uint => uint) private _totalServiceMission;\r\n    mapping(uint => Mission[]) private serviceMissionMap;\r\n \r\n    //-------Constituent-------\r\n    uint private _totalConstituent;\r\n    mapping(uint => Constituent) private constituentMap;\r\n    //--Constituent Parameter--\r\n    mapping(uint => uint) private _totalConstituentParameter;\r\n    mapping(uint => Parameter[]) private constituentParameterMap;\r\n    //---Constituent Service---\r\n    mapping(uint => uint) private _totalConstituentService;\r\n    mapping(uint => Service[]) private constituentServiceMap;\r\n\r\n    //--------Mission---------\r\n\r\n    function totalMission() public view returns (uint) {\r\n        return _totalMission;\r\n    }\r\n    \r\n    function setMission(string memory _missionDescription, string memory _missionTag, uint _missionCodeFather) public {\r\n        _totalMission = _totalMission.add(1);\r\n        missionMap[_totalMission] = Mission(_totalMission, _missionDescription, msg.sender, _missionTag, _missionCodeFather);\r\n    }\r\n\r\n    function getMission(uint  _missionCode) public view returns (uint, string memory, address, string memory, uint) {\r\n        return (_missionCode,\r\n            missionMap[_missionCode].missionDescription,\r\n            missionMap[_missionCode].missionOwner,\r\n            missionMap[_missionCode].missionTag,\r\n            missionMap[_missionCode].missionCodeFather\r\n        );\r\n    }\r\n \r\n     //---------Service-------\r\n    \r\n    function totalService() public view returns (uint) {\r\n        return _totalService;\r\n    }\r\n    \r\n    function setService(string memory _serviceDescription, uint _serviceHTTPMethod, \r\n        string memory serviceURL, uint _serviceContentType, uint _serviceRAWDataType) public {\r\n        _totalService = _totalService.add(1);\r\n        serviceMap[_totalService] = Service(_totalService, _serviceDescription, HTTPMethod(_serviceHTTPMethod), \r\n        serviceURL, ContentType(_serviceContentType), RAWDataType(_serviceRAWDataType), msg.sender);\r\n    }\r\n    \r\n    function getService(uint  _serviceCode) public view returns (uint, string memory, HTTPMethod, \r\n        string memory, ContentType, RAWDataType, address) {\r\n        return (_serviceCode, \r\n            serviceMap[_serviceCode].serviceDescription,\r\n            serviceMap[_serviceCode].serviceHTTPMethod,\r\n            serviceMap[_serviceCode].serviceURL,\r\n            serviceMap[_serviceCode].serviceContentType,\r\n            serviceMap[_serviceCode].serviceRAWDataType,\r\n            serviceMap[_serviceCode].serviceOwner\r\n        );\r\n    }    \r\n    \r\n    //-------Service Parameter-------\r\n    \r\n    \r\n    function totalServiceParameter(uint _serviceCode) public view returns (uint) {\r\n        return _totalServiceParameter[_serviceCode];\r\n    }\r\n\r\n    function setServiceParameter(uint  _serviceCode, string memory _parameterKey, \r\n        string memory _parameterValue, string memory _parameterDescription) public returns (bool) {\r\n        if(msg.sender==serviceMap[_serviceCode].serviceOwner)\r\n        {\r\n            MissionsSoS.Parameter memory parameter = Parameter(_parameterKey, _parameterValue, _parameterDescription);\r\n            _totalServiceParameter[_serviceCode]=_totalServiceParameter[_serviceCode].add(1);\r\n            serviceParameterMap[_serviceCode].push(parameter);\r\n            return true;\r\n        }else\r\n        {\r\n            return false;\r\n        }\r\n    }\r\n        \r\n    function getServiceParameter(uint  _serviceCode, uint _parameterCode) public view \r\n        returns (string memory, string memory, string memory) {\r\n\r\n        return (serviceParameterMap[_serviceCode][_parameterCode].parameterKey,\r\n            serviceParameterMap[_serviceCode][_parameterCode].parameterValue,\r\n            serviceParameterMap[_serviceCode][_parameterCode].parameterDescription\r\n        );\r\n    }\r\n\r\n    \r\n    //-------Constituent-------\r\n    \r\n    function totalConstituent() public view returns (uint) {\r\n        return _totalConstituent;\r\n    }\r\n    \r\n    function setConstituent() public {\r\n        _totalConstituent = _totalConstituent.add(1);\r\n        _totalConstituentParameter[_totalConstituent]=0;\r\n        constituentMap[_totalConstituent] = Constituent(_totalConstituent, msg.sender);\r\n    }\r\n    \r\n    function getConstituent(uint  _constituentCode) public view returns (uint, address) {\r\n        return (_constituentCode, constituentMap[_constituentCode].constituentOwner);\r\n    }\r\n    \r\n    //--Constituent Parameter--\r\n    \r\n    function setConstituentParameter(uint  _constituentCode, string memory _parameterKey, \r\n        string memory _parameterValue, string memory _parameterDescription) public returns (bool) {\r\n        if(msg.sender==constituentMap[_constituentCode].constituentOwner)\r\n        {\r\n            MissionsSoS.Parameter memory parameter = Parameter(_parameterKey, _parameterValue, _parameterDescription);\r\n            _totalConstituentParameter[_constituentCode]=_totalConstituentParameter[_constituentCode].add(1);\r\n            constituentParameterMap[_constituentCode].push(parameter);\r\n            return true;\r\n        }else\r\n        {\r\n            return false;\r\n        }\r\n    }\r\n    \r\n    function totalConstituentParameter(uint _constituentCode) public view returns (uint) {\r\n        return _totalConstituentParameter[_constituentCode];\r\n    }\r\n    \r\n    function getConstituentParameter(uint  _constituentCode, uint _parameterCode) public view \r\n        returns (string memory, string memory, string memory) {\r\n\r\n        return (constituentParameterMap[_constituentCode][_parameterCode].parameterKey,\r\n            constituentParameterMap[_constituentCode][_parameterCode].parameterValue,\r\n            constituentParameterMap[_constituentCode][_parameterCode].parameterDescription\r\n        );\r\n    }\r\n\r\n    //-----Constituent Service--------\r\n\r\n    function setConstituentService(uint  _constituentCode, uint _serviceCode) public returns (bool) {\r\n        \r\n        return true;\r\n    }\r\n\r\n   function totalConstituentService(uint _constituentCode) public view returns (uint) {\r\n        return _totalConstituentService[_constituentCode];\r\n    }\r\n\r\n}",
  "sourcePath": "D:\\Misiones_Services_Contract\\contracts\\MissionsSoS.sol",
  "compiler": {
    "name": "solc",
    "version": "0.5.16+commit.9c3226ce.Emscripten.clang"
  },
  "schemaVersion": "3.0.23",
  "updatedAt": "2020-02-26T16:41:58.548Z",
  "networkType": "ethereum",
  "devdoc": {
    "methods": {}
  },
  "userdoc": {
    "methods": {}
  }
}