{
  "contractName": "MissionsSoSService",
  "abi": [
    {
      "constant": true,
      "inputs": [],
      "name": "totalMission",
      "outputs": [
        {
          "internalType": "uint256",
          "name": "",
          "type": "uint256"
        }
      ],
      "payable": false,
      "stateMutability": "view",
      "type": "function"
    },
    {
      "constant": false,
      "inputs": [
        {
          "internalType": "string",
          "name": "_missionDescription",
          "type": "string"
        },
        {
          "internalType": "string",
          "name": "_missionTag",
          "type": "string"
        },
        {
          "internalType": "uint256",
          "name": "_missionCodeFather",
          "type": "uint256"
        }
      ],
      "name": "setMission",
      "outputs": [],
      "payable": false,
      "stateMutability": "nonpayable",
      "type": "function"
    },
    {
      "constant": true,
      "inputs": [
        {
          "internalType": "uint256",
          "name": "_missionCode",
          "type": "uint256"
        }
      ],
      "name": "getMission",
      "outputs": [
        {
          "internalType": "uint256",
          "name": "",
          "type": "uint256"
        },
        {
          "internalType": "string",
          "name": "",
          "type": "string"
        },
        {
          "internalType": "address",
          "name": "",
          "type": "address"
        },
        {
          "internalType": "string",
          "name": "",
          "type": "string"
        },
        {
          "internalType": "uint256",
          "name": "",
          "type": "uint256"
        }
      ],
      "payable": false,
      "stateMutability": "view",
      "type": "function"
    },
    {
      "constant": true,
      "inputs": [],
      "name": "totalConstituent",
      "outputs": [
        {
          "internalType": "uint256",
          "name": "",
          "type": "uint256"
        }
      ],
      "payable": false,
      "stateMutability": "view",
      "type": "function"
    },
    {
      "constant": false,
      "inputs": [],
      "name": "setConstituent",
      "outputs": [],
      "payable": false,
      "stateMutability": "nonpayable",
      "type": "function"
    },
    {
      "constant": true,
      "inputs": [
        {
          "internalType": "uint256",
          "name": "_constituentCode",
          "type": "uint256"
        }
      ],
      "name": "getConstituent",
      "outputs": [
        {
          "internalType": "uint256",
          "name": "",
          "type": "uint256"
        },
        {
          "internalType": "address",
          "name": "",
          "type": "address"
        }
      ],
      "payable": false,
      "stateMutability": "view",
      "type": "function"
    },
    {
      "constant": false,
      "inputs": [
        {
          "internalType": "uint256",
          "name": "_constituentCode",
          "type": "uint256"
        },
        {
          "internalType": "string",
          "name": "_parameterKey",
          "type": "string"
        },
        {
          "internalType": "string",
          "name": "_parameterValue",
          "type": "string"
        },
        {
          "internalType": "string",
          "name": "_parameterDescription",
          "type": "string"
        }
      ],
      "name": "setConstituentParameter",
      "outputs": [
        {
          "internalType": "bool",
          "name": "",
          "type": "bool"
        }
      ],
      "payable": false,
      "stateMutability": "nonpayable",
      "type": "function"
    },
    {
      "constant": true,
      "inputs": [
        {
          "internalType": "uint256",
          "name": "_constituentCode",
          "type": "uint256"
        }
      ],
      "name": "totalConstituentParameter",
      "outputs": [
        {
          "internalType": "uint256",
          "name": "",
          "type": "uint256"
        }
      ],
      "payable": false,
      "stateMutability": "view",
      "type": "function"
    },
    {
      "constant": true,
      "inputs": [
        {
          "internalType": "uint256",
          "name": "_constituentCode",
          "type": "uint256"
        },
        {
          "internalType": "uint256",
          "name": "_parameterCode",
          "type": "uint256"
        }
      ],
      "name": "getConstituentParameter",
      "outputs": [
        {
          "internalType": "string",
          "name": "",
          "type": "string"
        },
        {
          "internalType": "string",
          "name": "",
          "type": "string"
        },
        {
          "internalType": "string",
          "name": "",
          "type": "string"
        }
      ],
      "payable": false,
      "stateMutability": "view",
      "type": "function"
    },
    {
      "constant": false,
      "inputs": [
        {
          "internalType": "uint256",
          "name": "_constituentCode",
          "type": "uint256"
        },
        {
          "internalType": "string",
          "name": "_serviceDescription",
          "type": "string"
        },
        {
          "internalType": "uint256",
          "name": "_serviceHTTPMethod",
          "type": "uint256"
        },
        {
          "internalType": "string",
          "name": "serviceURL",
          "type": "string"
        },
        {
          "internalType": "uint256",
          "name": "_serviceContentType",
          "type": "uint256"
        },
        {
          "internalType": "uint256",
          "name": "_serviceRAWDataType",
          "type": "uint256"
        }
      ],
      "name": "setConstituentService",
      "outputs": [
        {
          "internalType": "bool",
          "name": "",
          "type": "bool"
        }
      ],
      "payable": false,
      "stateMutability": "nonpayable",
      "type": "function"
    },
    {
      "constant": true,
      "inputs": [
        {
          "internalType": "uint256",
          "name": "_constituentCode",
          "type": "uint256"
        }
      ],
      "name": "totalConstituentService",
      "outputs": [
        {
          "internalType": "uint256",
          "name": "",
          "type": "uint256"
        }
      ],
      "payable": false,
      "stateMutability": "view",
      "type": "function"
    },
    {
      "constant": true,
      "inputs": [
        {
          "internalType": "uint256",
          "name": "_constituentCode",
          "type": "uint256"
        },
        {
          "internalType": "uint256",
          "name": "_serviceCode",
          "type": "uint256"
        }
      ],
      "name": "getConstituentService",
      "outputs": [
        {
          "internalType": "uint256",
          "name": "",
          "type": "uint256"
        },
        {
          "internalType": "string",
          "name": "",
          "type": "string"
        },
        {
          "internalType": "enum MissionsSoSService.HTTPMethod",
          "name": "",
          "type": "uint8"
        },
        {
          "internalType": "string",
          "name": "",
          "type": "string"
        },
        {
          "internalType": "enum MissionsSoSService.ContentType",
          "name": "",
          "type": "uint8"
        },
        {
          "internalType": "enum MissionsSoSService.RAWDataType",
          "name": "",
          "type": "uint8"
        }
      ],
      "payable": false,
      "stateMutability": "view",
      "type": "function"
    },
    {
      "constant": false,
      "inputs": [
        {
          "internalType": "uint256",
          "name": "_constituentCode",
          "type": "uint256"
        },
        {
          "internalType": "uint256",
          "name": "_serviceCode",
          "type": "uint256"
        },
        {
          "internalType": "string",
          "name": "_parameterKey",
          "type": "string"
        },
        {
          "internalType": "string",
          "name": "_parameterValue",
          "type": "string"
        },
        {
          "internalType": "string",
          "name": "_parameterDescription",
          "type": "string"
        }
      ],
      "name": "setConstituentServiceParameter",
      "outputs": [
        {
          "internalType": "bool",
          "name": "",
          "type": "bool"
        }
      ],
      "payable": false,
      "stateMutability": "nonpayable",
      "type": "function"
    },
    {
      "constant": true,
      "inputs": [
        {
          "internalType": "uint256",
          "name": "_constituentCode",
          "type": "uint256"
        },
        {
          "internalType": "uint256",
          "name": "_serviceCode",
          "type": "uint256"
        }
      ],
      "name": "totalConstituentServiceParameter",
      "outputs": [
        {
          "internalType": "uint256",
          "name": "",
          "type": "uint256"
        }
      ],
      "payable": false,
      "stateMutability": "view",
      "type": "function"
    },
    {
      "constant": true,
      "inputs": [
        {
          "internalType": "uint256",
          "name": "_constituentCode",
          "type": "uint256"
        },
        {
          "internalType": "uint256",
          "name": "_serviceCode",
          "type": "uint256"
        },
        {
          "internalType": "uint256",
          "name": "_parameterCode",
          "type": "uint256"
        }
      ],
      "name": "getConstituentServiceParameter",
      "outputs": [
        {
          "internalType": "string",
          "name": "",
          "type": "string"
        },
        {
          "internalType": "string",
          "name": "",
          "type": "string"
        },
        {
          "internalType": "string",
          "name": "",
          "type": "string"
        }
      ],
      "payable": false,
      "stateMutability": "view",
      "type": "function"
    }
  ],
  "bytecode": "0x608060405234801561001057600080fd5b50612249806100206000396000f3fe608060405234801561001057600080fd5b50600436106100f55760003560e01c8063a11e052f11610097578063bcb1b1a711610066578063bcb1b1a714610c33578063d23ef6a214610dc6578063d970ab2914610dd0578063eb2b94b514610e12576100f5565b8063a11e052f14610832578063ad3eb51514610a3d578063b72da87d14610ab2578063bb286a8514610c15576100f5565b80635820a70e116100d35780635820a70e1461039d57806395242d2a146104f9578063994d33771461068b5780639da1e84d14610814576100f5565b80632b39d5c7146100fa5780632b3f2bfb1461030f5780632f4a5cf31461035b575b600080fd5b6102f5600480360360a081101561011057600080fd5b8101908080359060200190929190803590602001909291908035906020019064010000000081111561014157600080fd5b82018360208201111561015357600080fd5b8035906020019184600183028401116401000000008311171561017557600080fd5b91908080601f016020809104026020016040519081016040528093929190818152602001838380828437600081840152601f19601f820116905080830192505050505050509192919290803590602001906401000000008111156101d857600080fd5b8201836020820111156101ea57600080fd5b8035906020019184600183028401116401000000008311171561020c57600080fd5b91908080601f016020809104026020016040519081016040528093929190818152602001838380828437600081840152601f19601f8201169050808301925050505050505091929192908035906020019064010000000081111561026f57600080fd5b82018360208201111561028157600080fd5b803590602001918460018302840111640100000000831117156102a357600080fd5b91908080601f016020809104026020016040519081016040528093929190818152602001838380828437600081840152601f19601f820116905080830192505050505050509192919290505050610f66565b604051808215151515815260200191505060405180910390f35b6103456004803603604081101561032557600080fd5b810190808035906020019092919080359060200190929190505050611119565b6040518082815260200191505060405180910390f35b6103876004803603602081101561037157600080fd5b8101908080359060200190929190505050611148565b6040518082815260200191505060405180910390f35b6104f7600480360360608110156103b357600080fd5b81019080803590602001906401000000008111156103d057600080fd5b8201836020820111156103e257600080fd5b8035906020019184600183028401116401000000008311171561040457600080fd5b91908080601f016020809104026020016040519081016040528093929190818152602001838380828437600081840152601f19601f8201169050808301925050505050505091929192908035906020019064010000000081111561046757600080fd5b82018360208201111561047957600080fd5b8035906020019184600183028401116401000000008311171561049b57600080fd5b91908080601f016020809104026020016040519081016040528093929190818152602001838380828437600081840152601f19601f82011690508083019250505050505050919291929080359060200190929190505050611165565b005b610671600480360360c081101561050f57600080fd5b81019080803590602001909291908035906020019064010000000081111561053657600080fd5b82018360208201111561054857600080fd5b8035906020019184600183028401116401000000008311171561056a57600080fd5b91908080601f016020809104026020016040519081016040528093929190818152602001838380828437600081840152601f19601f82011690508083019250505050505050919291929080359060200190929190803590602001906401000000008111156105d757600080fd5b8201836020820111156105e957600080fd5b8035906020019184600183028401116401000000008311171561060b57600080fd5b91908080601f016020809104026020016040519081016040528093929190818152602001838380828437600081840152601f19601f8201169050808301925050505050505091929192908035906020019092919080359060200190929190505050611271565b604051808215151515815260200191505060405180910390f35b6106c1600480360360408110156106a157600080fd5b8101908080359060200190929190803590602001909291905050506114c1565b60405180806020018060200180602001848103845287818151815260200191508051906020019080838360005b838110156107095780820151818401526020810190506106ee565b50505050905090810190601f1680156107365780820380516001836020036101000a031916815260200191505b50848103835286818151815260200191508051906020019080838360005b8381101561076f578082015181840152602081019050610754565b50505050905090810190601f16801561079c5780820380516001836020036101000a031916815260200191505b50848103825285818151815260200191508051906020019080838360005b838110156107d55780820151818401526020810190506107ba565b50505050905090810190601f1680156108025780820380516001836020036101000a031916815260200191505b50965050505050505060405180910390f35b61081c611734565b6040518082815260200191505060405180910390f35b610a236004803603608081101561084857600080fd5b81019080803590602001909291908035906020019064010000000081111561086f57600080fd5b82018360208201111561088157600080fd5b803590602001918460018302840111640100000000831117156108a357600080fd5b91908080601f016020809104026020016040519081016040528093929190818152602001838380828437600081840152601f19601f8201169050808301925050505050505091929192908035906020019064010000000081111561090657600080fd5b82018360208201111561091857600080fd5b8035906020019184600183028401116401000000008311171561093a57600080fd5b91908080601f016020809104026020016040519081016040528093929190818152602001838380828437600081840152601f19601f8201169050808301925050505050505091929192908035906020019064010000000081111561099d57600080fd5b8201836020820111156109af57600080fd5b803590602001918460018302840111640100000000831117156109d157600080fd5b91908080601f016020809104026020016040519081016040528093929190818152602001838380828437600081840152601f19601f82011690508083019250505050505050919291929050505061173d565b604051808215151515815260200191505060405180910390f35b610a6960048036036020811015610a5357600080fd5b81019080803590602001909291905050506118bc565b604051808381526020018273ffffffffffffffffffffffffffffffffffffffff1673ffffffffffffffffffffffffffffffffffffffff1681526020019250505060405180910390f35b610ae860048036036040811015610ac857600080fd5b810190808035906020019092919080359060200190929190505050611900565b6040518087815260200180602001866004811115610b0257fe5b60ff16815260200180602001856005811115610b1a57fe5b60ff168152602001846005811115610b2e57fe5b60ff168152602001838103835288818151815260200191508051906020019080838360005b83811015610b6e578082015181840152602081019050610b53565b50505050905090810190601f168015610b9b5780820380516001836020036101000a031916815260200191505b50838103825286818151815260200191508051906020019080838360005b83811015610bd4578082015181840152602081019050610bb9565b50505050905090810190601f168015610c015780820380516001836020036101000a031916815260200191505b509850505050505050505060405180910390f35b610c1d611b6f565b6040518082815260200191505060405180910390f35b610c7360048036036060811015610c4957600080fd5b81019080803590602001909291908035906020019092919080359060200190929190505050611b79565b60405180806020018060200180602001848103845287818151815260200191508051906020019080838360005b83811015610cbb578082015181840152602081019050610ca0565b50505050905090810190601f168015610ce85780820380516001836020036101000a031916815260200191505b50848103835286818151815260200191508051906020019080838360005b83811015610d21578082015181840152602081019050610d06565b50505050905090810190601f168015610d4e5780820380516001836020036101000a031916815260200191505b50848103825285818151815260200191508051906020019080838360005b83811015610d87578082015181840152602081019050610d6c565b50505050905090810190601f168015610db45780820380516001836020036101000a031916815260200191505b50965050505050505060405180910390f35b610dce611e21565b005b610dfc60048036036020811015610de657600080fd5b8101908080359060200190929190505050611ef0565b6040518082815260200191505060405180910390f35b610e3e60048036036020811015610e2857600080fd5b8101908080359060200190929190505050611f0d565b60405180868152602001806020018573ffffffffffffffffffffffffffffffffffffffff1673ffffffffffffffffffffffffffffffffffffffff16815260200180602001848152602001838103835287818151815260200191508051906020019080838360005b83811015610ec0578082015181840152602081019050610ea5565b50505050905090810190601f168015610eed5780820380516001836020036101000a031916815260200191505b50838103825285818151815260200191508051906020019080838360005b83811015610f26578082015181840152602081019050610f0b565b50505050905090810190601f168015610f535780820380516001836020036101000a031916815260200191505b5097505050505050505060405180910390f35b60006003600087815260200190815260200160002060010160009054906101000a900473ffffffffffffffffffffffffffffffffffffffff1673ffffffffffffffffffffffffffffffffffffffff163373ffffffffffffffffffffffffffffffffffffffff16141561110b57610fda6120f7565b604051806060016040528086815260200185815260200184815250905060096000888152602001908152602001600020600087815260200190815260200160002081908060018154018082558091505090600182039060005260206000209060030201600090919290919091506000820151816000019080519060200190611063929190612118565b506020820151816001019080519060200190611080929190612118565b50604082015181600201908051906020019061109d929190612118565b505050506110d96001600860008a81526020019081526020016000206000898152602001908152602001600020546120dd90919063ffffffff16565b600860008981526020019081526020016000206000888152602001908152602001600020819055506001915050611110565b600090505b95945050505050565b600060086000848152602001908152602001600020600083815260200190815260200160002054905092915050565b600060046000838152602001908152602001600020549050919050565b6040518060a0016040528060005481526020018481526020013373ffffffffffffffffffffffffffffffffffffffff1681526020018381526020018281525060016000805481526020019081526020016000206000820151816000015560208201518160010190805190602001906111de929190612118565b5060408201518160020160006101000a81548173ffffffffffffffffffffffffffffffffffffffff021916908373ffffffffffffffffffffffffffffffffffffffff1602179055506060820151816003019080519060200190611242929190612118565b506080820151816004015590505061126660016000546120dd90919063ffffffff16565b600081905550505050565b60006003600088815260200190815260200160002060010160009054906101000a900473ffffffffffffffffffffffffffffffffffffffff1673ffffffffffffffffffffffffffffffffffffffff163373ffffffffffffffffffffffffffffffffffffffff1614156114b2576112e5612198565b6040518060c00160405280600660008b815260200190815260200160002054815260200188815260200187600481111561131b57fe5b600481111561132657fe5b815260200186815260200185600581111561133d57fe5b600581111561134857fe5b815260200184600581111561135957fe5b600581111561136457fe5b81525090506113906001600660008b8152602001908152602001600020546120dd90919063ffffffff16565b600660008a81526020019081526020016000208190555060076000898152602001908152602001600020819080600181540180825580915050906001820390600052602060002090600502016000909192909190915060008201518160000155602082015181600101908051906020019061140c929190612118565b5060408201518160020160006101000a81548160ff0219169083600481111561143157fe5b02179055506060820151816003019080519060200190611452929190612118565b5060808201518160040160006101000a81548160ff0219169083600581111561147757fe5b021790555060a08201518160040160016101000a81548160ff021916908360058111156114a057fe5b021790555050505060019150506114b7565b600090505b9695505050505050565b60608060606005600086815260200190815260200160002084815481106114e457fe5b906000526020600020906003020160000160056000878152602001908152602001600020858154811061151357fe5b906000526020600020906003020160010160056000888152602001908152602001600020868154811061154257fe5b9060005260206000209060030201600201828054600181600116156101000203166002900480601f0160208091040260200160405190810160405280929190818152602001828054600181600116156101000203166002900480156115e85780601f106115bd576101008083540402835291602001916115e8565b820191906000526020600020905b8154815290600101906020018083116115cb57829003601f168201915b50505050509250818054600181600116156101000203166002900480601f0160208091040260200160405190810160405280929190818152602001828054600181600116156101000203166002900480156116845780601f1061165957610100808354040283529160200191611684565b820191906000526020600020905b81548152906001019060200180831161166757829003601f168201915b50505050509150808054600181600116156101000203166002900480601f0160208091040260200160405190810160405280929190818152602001828054600181600116156101000203166002900480156117205780601f106116f557610100808354040283529160200191611720565b820191906000526020600020905b81548152906001019060200180831161170357829003601f168201915b505050505090509250925092509250925092565b60008054905090565b60006003600086815260200190815260200160002060010160009054906101000a900473ffffffffffffffffffffffffffffffffffffffff1673ffffffffffffffffffffffffffffffffffffffff163373ffffffffffffffffffffffffffffffffffffffff1614156118af576117b16120f7565b60405180606001604052808681526020018581526020018481525090506117f5600160046000898152602001908152602001600020546120dd90919063ffffffff16565b60046000888152602001908152602001600020819055506005600087815260200190815260200160002081908060018154018082558091505090600182039060005260206000209060030201600090919290919091506000820151816000019080519060200190611867929190612118565b506020820151816001019080519060200190611884929190612118565b5060408201518160020190805190602001906118a1929190612118565b5050505060019150506118b4565b600090505b949350505050565b600080826003600085815260200190815260200160002060010160009054906101000a900473ffffffffffffffffffffffffffffffffffffffff1691509150915091565b600060606000606060008086600760008a8152602001908152602001600020888154811061192a57fe5b9060005260206000209060050201600101600760008b8152602001908152602001600020898154811061195957fe5b906000526020600020906005020160020160009054906101000a900460ff16600760008c81526020019081526020016000208a8154811061199657fe5b9060005260206000209060050201600301600760008d81526020019081526020016000208b815481106119c557fe5b906000526020600020906005020160040160009054906101000a900460ff16600760008e81526020019081526020016000208c81548110611a0257fe5b906000526020600020906005020160040160019054906101000a900460ff16848054600181600116156101000203166002900480601f016020809104026020016040519081016040528092919081815260200182805460018160011615610100020316600290048015611ab65780601f10611a8b57610100808354040283529160200191611ab6565b820191906000526020600020905b815481529060010190602001808311611a9957829003601f168201915b50505050509450828054600181600116156101000203166002900480601f016020809104026020016040519081016040528092919081815260200182805460018160011615610100020316600290048015611b525780601f10611b2757610100808354040283529160200191611b52565b820191906000526020600020905b815481529060010190602001808311611b3557829003601f168201915b505050505092509550955095509550955095509295509295509295565b6000600254905090565b60608060606009600087815260200190815260200160002060008681526020019081526020016000208481548110611bad57fe5b90600052602060002090600302016000016009600088815260200190815260200160002060008781526020019081526020016000208581548110611bed57fe5b90600052602060002090600302016001016009600089815260200190815260200160002060008881526020019081526020016000208681548110611c2d57fe5b9060005260206000209060030201600201828054600181600116156101000203166002900480601f016020809104026020016040519081016040528092919081815260200182805460018160011615610100020316600290048015611cd35780601f10611ca857610100808354040283529160200191611cd3565b820191906000526020600020905b815481529060010190602001808311611cb657829003601f168201915b50505050509250818054600181600116156101000203166002900480601f016020809104026020016040519081016040528092919081815260200182805460018160011615610100020316600290048015611d6f5780601f10611d4457610100808354040283529160200191611d6f565b820191906000526020600020905b815481529060010190602001808311611d5257829003601f168201915b50505050509150808054600181600116156101000203166002900480601f016020809104026020016040519081016040528092919081815260200182805460018160011615610100020316600290048015611e0b5780601f10611de057610100808354040283529160200191611e0b565b820191906000526020600020905b815481529060010190602001808311611dee57829003601f168201915b5050505050905092509250925093509350939050565b604051806040016040528060025481526020013373ffffffffffffffffffffffffffffffffffffffff168152506003600060025481526020019081526020016000206000820151816000015560208201518160010160006101000a81548173ffffffffffffffffffffffffffffffffffffffff021916908373ffffffffffffffffffffffffffffffffffffffff160217905550905050611ecd60016002546120dd90919063ffffffff16565b600281905550600060046000600254815260200190815260200160002081905550565b600060066000838152602001908152602001600020549050919050565b6000606060006060600085600160008881526020019081526020016000206001016001600089815260200190815260200160002060020160009054906101000a900473ffffffffffffffffffffffffffffffffffffffff16600160008a8152602001908152602001600020600301600160008b815260200190815260200160002060040154838054600181600116156101000203166002900480601f0160208091040260200160405190810160405280929190818152602001828054600181600116156101000203166002900480156120275780601f10611ffc57610100808354040283529160200191612027565b820191906000526020600020905b81548152906001019060200180831161200a57829003601f168201915b50505050509350818054600181600116156101000203166002900480601f0160208091040260200160405190810160405280929190818152602001828054600181600116156101000203166002900480156120c35780601f10612098576101008083540402835291602001916120c3565b820191906000526020600020905b8154815290600101906020018083116120a657829003601f168201915b505050505091509450945094509450945091939590929450565b60008183019050828110156120ee57fe5b80905092915050565b60405180606001604052806060815260200160608152602001606081525090565b828054600181600116156101000203166002900490600052602060002090601f016020900481019282601f1061215957805160ff1916838001178555612187565b82800160010185558215612187579182015b8281111561218657825182559160200191906001019061216b565b5b50905061219491906121ef565b5090565b6040518060c001604052806000815260200160608152602001600060048111156121be57fe5b815260200160608152602001600060058111156121d757fe5b8152602001600060058111156121e957fe5b81525090565b61221191905b8082111561220d5760008160009055506001016121f5565b5090565b9056fea265627a7a72315820c835869ec5dd4ddf36b528e8890545e4a6da91b1b1565badbf0c4a0b8884171d64736f6c63430005100032",
  "source": "pragma solidity  >=0.5.16 <0.7.0;\r\n\r\nlibrary SafeMath {\r\n    function add(uint256 a, uint256 b) internal pure returns (uint256 c) {\r\n        c = a + b;\r\n        assert(c >= a);\r\n        return c;\r\n    }\r\n    function sub(uint256 a, uint256 b) internal pure returns (uint256) {\r\n        assert(b <= a);\r\n        return a - b;\r\n    }\r\n    function mul(uint256 a, uint256 b) internal pure returns (uint256 c) {\r\n        if (a == 0) {\r\n            return 0;\r\n        }\r\n        c = a * b;\r\n        assert(c / a == b);\r\n        return c;\r\n    }\r\n    function div(uint256 a, uint256 b) internal pure returns (uint256) {\r\n        assert(b>0);\r\n        return a / b;\r\n    }\r\n}\r\n\r\ncontract MissionsSoSService{\r\n    \r\n    using SafeMath for uint;\r\n\r\n    enum HTTPMethod  {GET, POST, PATCH, PUT, DELETE}\r\n    enum ContentType {none, data, URL_encoded, raw, binary, GraphQL}\r\n    enum RAWDataType {none, Text, JavaScript, JSON, HTML, XML}\r\n\r\n   struct Mission {\r\n        uint missionCode;\r\n        string missionDescription;\r\n        address missionOwner;\r\n        string missionTag;\r\n        uint missionCodeFather;\r\n    }\r\n\r\n    struct Parameter {\r\n        string parameterKey;\r\n        string parameterValue;\r\n        string parameterDescription;\r\n\r\n    }\r\n\r\n    struct Constituent {\r\n        uint constituentCode;\r\n        address constituentOwner;\r\n    }\r\n\r\n    struct Service {\r\n        uint serviceCode;\r\n        string serviceDescription;\r\n        HTTPMethod serviceHTTPMethod;\r\n        string serviceURL;\r\n        ContentType serviceContentType;\r\n        RAWDataType serviceRAWDataType;\r\n    }\r\n    \r\n    //--------Mission---------\r\n    uint private _totalMission;\r\n    mapping(uint => Mission) private missionMap;\r\n \r\n    //---------Constituyente Service-------\r\n    //uint private _totalService;\r\n    //mapping(uint => Service) private serviceMap;\r\n\r\n    //-------Constituent-------\r\n    uint private _totalConstituent;\r\n    mapping(uint => Constituent) private constituentMap;\r\n    //--Constituent Parameter--\r\n    mapping(uint => uint) private _totalConstituentParameter;\r\n    mapping(uint => Parameter[]) private constituentParameterMap;\r\n    //---Constituent Service---\r\n    mapping(uint => uint) private _totalConstituentService;\r\n    mapping(uint => Service[]) private constituentServiceMap;\r\n\r\n    //-------Constituent Service Parameter-------\r\n    mapping(uint => mapping(uint => uint)) private _totalConstituentServiceParameter;\r\n    mapping(uint => mapping(uint => Parameter[])) private constituentServiceParameterMap;\r\n    \r\n    //-------Service Mission-------\r\n    mapping(uint => uint) private _totalServiceMission;\r\n    mapping(uint => Mission[]) private serviceMissionMap;\r\n \r\n\r\n\r\n    //--------Mission---------\r\n\r\n    function totalMission() public view returns (uint) {\r\n        return _totalMission;\r\n    }\r\n    \r\n    function setMission(string memory _missionDescription, string memory _missionTag, uint _missionCodeFather) public {\r\n        missionMap[_totalMission] = Mission(_totalMission, _missionDescription, msg.sender, _missionTag, _missionCodeFather);\r\n        _totalMission = _totalMission.add(1);\r\n    }\r\n\r\n    function getMission(uint  _missionCode) public view returns (uint, string memory, address, string memory, uint) {\r\n        return (_missionCode,\r\n            missionMap[_missionCode].missionDescription,\r\n            missionMap[_missionCode].missionOwner,\r\n            missionMap[_missionCode].missionTag,\r\n            missionMap[_missionCode].missionCodeFather\r\n        );\r\n    }\r\n \r\n    \r\n    //-------Constituent-------\r\n    \r\n    function totalConstituent() public view returns (uint) {\r\n        return _totalConstituent;\r\n    }\r\n    \r\n    function setConstituent() public {        \r\n        constituentMap[_totalConstituent] = Constituent(_totalConstituent, msg.sender);\r\n        _totalConstituent = _totalConstituent.add(1);\r\n        _totalConstituentParameter[_totalConstituent]=0;\r\n    }\r\n    \r\n    function getConstituent(uint  _constituentCode) public view returns (uint, address) {\r\n        return (_constituentCode, constituentMap[_constituentCode].constituentOwner);\r\n    }\r\n    \r\n    //--Constituent Parameter--\r\n    \r\n    function setConstituentParameter(uint  _constituentCode, string memory _parameterKey, \r\n        string memory _parameterValue, string memory _parameterDescription) public returns (bool) {\r\n        if(msg.sender==constituentMap[_constituentCode].constituentOwner)\r\n        {\r\n            MissionsSoSService.Parameter memory parameter = Parameter(_parameterKey, _parameterValue, _parameterDescription);\r\n            _totalConstituentParameter[_constituentCode]=_totalConstituentParameter[_constituentCode].add(1);\r\n            constituentParameterMap[_constituentCode].push(parameter);\r\n            return true;\r\n        }else\r\n        {\r\n            return false;\r\n        }\r\n    }\r\n    \r\n    function totalConstituentParameter(uint _constituentCode) public view returns (uint) {\r\n        return _totalConstituentParameter[_constituentCode];\r\n    }\r\n    \r\n    function getConstituentParameter(uint  _constituentCode, uint _parameterCode) public view \r\n        returns (string memory, string memory, string memory) {\r\n\r\n        return (constituentParameterMap[_constituentCode][_parameterCode].parameterKey,\r\n            constituentParameterMap[_constituentCode][_parameterCode].parameterValue,\r\n            constituentParameterMap[_constituentCode][_parameterCode].parameterDescription\r\n        );\r\n    }\r\n\r\n    //--Constituent Service----\r\n    \r\n    function setConstituentService(uint  _constituentCode, string memory _serviceDescription, uint _serviceHTTPMethod, \r\n        string memory serviceURL, uint _serviceContentType, uint _serviceRAWDataType) public returns (bool) {\r\n        if(msg.sender==constituentMap[_constituentCode].constituentOwner)\r\n        {            \r\n            MissionsSoSService.Service memory _service = Service(_totalConstituentService[_constituentCode],\r\n            _serviceDescription, HTTPMethod(_serviceHTTPMethod), serviceURL, ContentType(_serviceContentType), \r\n            RAWDataType(_serviceRAWDataType));\r\n            _totalConstituentService[_constituentCode]=_totalConstituentService[_constituentCode].add(1);\r\n            constituentServiceMap[_constituentCode].push(_service);\r\n            return true;\r\n        }else\r\n        {\r\n            return false;\r\n        }\r\n    }\r\n    \r\n    function totalConstituentService(uint _constituentCode) public view returns (uint) {\r\n        return _totalConstituentService[_constituentCode];\r\n    }\r\n    \r\n    function getConstituentService(uint  _constituentCode, uint _serviceCode) public view returns (\r\n        uint, string memory, HTTPMethod, \r\n        string memory, ContentType, RAWDataType) {\r\n        return (_serviceCode, constituentServiceMap[_constituentCode][_serviceCode].serviceDescription,\r\n            constituentServiceMap[_constituentCode][_serviceCode].serviceHTTPMethod,\r\n            constituentServiceMap[_constituentCode][_serviceCode].serviceURL,\r\n            constituentServiceMap[_constituentCode][_serviceCode].serviceContentType,\r\n            constituentServiceMap[_constituentCode][_serviceCode].serviceRAWDataType\r\n        );\r\n    }\r\n\r\n    //--Constituent Service Parameter--\r\n    \r\n    function setConstituentServiceParameter(uint  _constituentCode, uint  _serviceCode, string memory _parameterKey, \r\n        string memory _parameterValue, string memory _parameterDescription) public returns (bool) {\r\n        if(msg.sender==constituentMap[_constituentCode].constituentOwner)\r\n        {\r\n            MissionsSoSService.Parameter memory parameter = Parameter(_parameterKey, _parameterValue, _parameterDescription);\r\n            constituentServiceParameterMap[_constituentCode][_serviceCode].push(parameter);\r\n            _totalConstituentServiceParameter[_constituentCode][_serviceCode]=_totalConstituentServiceParameter[_constituentCode][_serviceCode].add(1);\r\n            return true;\r\n        }else\r\n        {\r\n            return false;\r\n        }\r\n    }\r\n    \r\n    function totalConstituentServiceParameter(uint _constituentCode, uint _serviceCode) public view returns (uint) {\r\n        return _totalConstituentServiceParameter[_constituentCode][_serviceCode];\r\n    }\r\n    \r\n    function getConstituentServiceParameter(uint  _constituentCode, uint _serviceCode, uint _parameterCode) public view \r\n        returns (string memory, string memory, string memory) {\r\n        \r\n        return (\r\n            (constituentServiceParameterMap[_constituentCode][_serviceCode])[_parameterCode].parameterKey,\r\n            (constituentServiceParameterMap[_constituentCode][_serviceCode])[_parameterCode].parameterValue,\r\n            (constituentServiceParameterMap[_constituentCode][_serviceCode])[_parameterCode].parameterDescription\r\n        );\r\n    }\r\n    \r\n     //---------Service-------\r\n    /*\r\n    function totalService() public view returns (uint) {\r\n        return _totalService;\r\n    }\r\n    \r\n    function setService(string memory _serviceDescription, uint _serviceHTTPMethod, \r\n        string memory serviceURL, uint _serviceContentType, uint _serviceRAWDataType) public {\r\n        _totalService = _totalService.add(1);\r\n        serviceMap[_totalService] = Service(_totalService, _serviceDescription, HTTPMethod(_serviceHTTPMethod), \r\n        serviceURL, ContentType(_serviceContentType), RAWDataType(_serviceRAWDataType), msg.sender);\r\n    }\r\n    \r\n    function getService(uint  _serviceCode) public view returns (uint, string memory, HTTPMethod, \r\n        string memory, ContentType, RAWDataType, address) {\r\n        return (_serviceCode, \r\n            serviceMap[_serviceCode].serviceDescription,\r\n            serviceMap[_serviceCode].serviceHTTPMethod,\r\n            serviceMap[_serviceCode].serviceURL,\r\n            serviceMap[_serviceCode].serviceContentType,\r\n            serviceMap[_serviceCode].serviceRAWDataType,\r\n            serviceMap[_serviceCode].serviceOwner\r\n        );\r\n    }    \r\n    */\r\n    //-------Service Parameter-------\r\n    \r\n    /*\r\n    function totalServiceParameter(uint _serviceCode) public view returns (uint) {\r\n        return _totalServiceParameter[_serviceCode];\r\n    }\r\n\r\n    function setServiceParameter(uint  _serviceCode, string memory _parameterKey, \r\n        string memory _parameterValue, string memory _parameterDescription) public returns (bool) {\r\n        if(msg.sender==serviceMap[_serviceCode].serviceOwner)\r\n        {\r\n            MissionsSoSService.Parameter memory parameter = Parameter(_parameterKey, _parameterValue, _parameterDescription);\r\n            _totalServiceParameter[_serviceCode]=_totalServiceParameter[_serviceCode].add(1);\r\n            serviceParameterMap[_serviceCode].push(parameter);\r\n            return true;\r\n        }else\r\n        {\r\n            return false;\r\n        }\r\n    }\r\n        \r\n    function getServiceParameter(uint  _serviceCode, uint _parameterCode) public view \r\n        returns (string memory, string memory, string memory) {\r\n\r\n        return (serviceParameterMap[_serviceCode][_parameterCode].parameterKey,\r\n            serviceParameterMap[_serviceCode][_parameterCode].parameterValue,\r\n            serviceParameterMap[_serviceCode][_parameterCode].parameterDescription\r\n        );\r\n    }\r\n*/\r\n\r\n\r\n}",
  "sourcePath": "D:\\Misiones_Services_Contract\\contracts\\MissionsSoSService.sol",
  "compiler": {
    "name": "solc",
    "version": "0.5.16+commit.9c3226ce.Emscripten.clang"
  },
  "schemaVersion": "3.0.23",
  "updatedAt": "2020-02-26T16:41:59.007Z",
  "networkType": "ethereum",
  "devdoc": {
    "methods": {}
  },
  "userdoc": {
    "methods": {}
  }
}