{
  "contractName": "MissionsSoS",
  "abi": [
    {
      "inputs": [],
      "payable": false,
      "stateMutability": "nonpayable",
      "type": "constructor"
    },
    {
      "constant": true,
      "inputs": [],
      "name": "totalMission",
      "outputs": [
        {
          "internalType": "uint256",
          "name": "",
          "type": "uint256"
        }
      ],
      "payable": false,
      "stateMutability": "view",
      "type": "function"
    },
    {
      "constant": false,
      "inputs": [
        {
          "internalType": "string",
          "name": "_missionDescription",
          "type": "string"
        },
        {
          "internalType": "string",
          "name": "_missionTag",
          "type": "string"
        },
        {
          "internalType": "uint256",
          "name": "_missionCodeFather",
          "type": "uint256"
        }
      ],
      "name": "setMission",
      "outputs": [],
      "payable": false,
      "stateMutability": "nonpayable",
      "type": "function"
    },
    {
      "constant": true,
      "inputs": [
        {
          "internalType": "uint256",
          "name": "_missionCode",
          "type": "uint256"
        }
      ],
      "name": "getMission",
      "outputs": [
        {
          "internalType": "uint256",
          "name": "",
          "type": "uint256"
        },
        {
          "internalType": "string",
          "name": "",
          "type": "string"
        },
        {
          "internalType": "address",
          "name": "",
          "type": "address"
        },
        {
          "internalType": "string",
          "name": "",
          "type": "string"
        },
        {
          "internalType": "uint256",
          "name": "",
          "type": "uint256"
        }
      ],
      "payable": false,
      "stateMutability": "view",
      "type": "function"
    },
    {
      "constant": true,
      "inputs": [],
      "name": "totalService",
      "outputs": [
        {
          "internalType": "uint256",
          "name": "",
          "type": "uint256"
        }
      ],
      "payable": false,
      "stateMutability": "view",
      "type": "function"
    },
    {
      "constant": false,
      "inputs": [
        {
          "internalType": "string",
          "name": "_serviceDescription",
          "type": "string"
        },
        {
          "internalType": "uint256",
          "name": "_serviceHTTPMethod",
          "type": "uint256"
        },
        {
          "internalType": "string",
          "name": "serviceURL",
          "type": "string"
        },
        {
          "internalType": "uint256",
          "name": "_serviceContentType",
          "type": "uint256"
        },
        {
          "internalType": "uint256",
          "name": "_serviceRAWDataType",
          "type": "uint256"
        }
      ],
      "name": "setService",
      "outputs": [],
      "payable": false,
      "stateMutability": "nonpayable",
      "type": "function"
    },
    {
      "constant": true,
      "inputs": [
        {
          "internalType": "uint256",
          "name": "_serviceCode",
          "type": "uint256"
        }
      ],
      "name": "getService",
      "outputs": [
        {
          "internalType": "uint256",
          "name": "",
          "type": "uint256"
        },
        {
          "internalType": "string",
          "name": "",
          "type": "string"
        },
        {
          "internalType": "address",
          "name": "",
          "type": "address"
        },
        {
          "internalType": "enum MissionsSoS.HTTPMethod",
          "name": "",
          "type": "uint8"
        },
        {
          "internalType": "string",
          "name": "",
          "type": "string"
        },
        {
          "internalType": "enum MissionsSoS.ContentType",
          "name": "",
          "type": "uint8"
        },
        {
          "internalType": "enum MissionsSoS.RAWDataType",
          "name": "",
          "type": "uint8"
        }
      ],
      "payable": false,
      "stateMutability": "view",
      "type": "function"
    },
    {
      "constant": false,
      "inputs": [
        {
          "internalType": "uint256",
          "name": "_serviceCode",
          "type": "uint256"
        },
        {
          "internalType": "string",
          "name": "_parameterKey",
          "type": "string"
        },
        {
          "internalType": "string",
          "name": "_parameterValue",
          "type": "string"
        }
      ],
      "name": "setServiceParameter",
      "outputs": [
        {
          "internalType": "bool",
          "name": "",
          "type": "bool"
        }
      ],
      "payable": false,
      "stateMutability": "nonpayable",
      "type": "function"
    },
    {
      "constant": true,
      "inputs": [
        {
          "internalType": "uint256",
          "name": "_serviceCode",
          "type": "uint256"
        }
      ],
      "name": "totalServiceParameter",
      "outputs": [
        {
          "internalType": "uint256",
          "name": "",
          "type": "uint256"
        }
      ],
      "payable": false,
      "stateMutability": "view",
      "type": "function"
    },
    {
      "constant": true,
      "inputs": [
        {
          "internalType": "uint256",
          "name": "_serviceCode",
          "type": "uint256"
        },
        {
          "internalType": "uint256",
          "name": "_parameterCode",
          "type": "uint256"
        }
      ],
      "name": "getServiceParameter",
      "outputs": [
        {
          "internalType": "string",
          "name": "",
          "type": "string"
        },
        {
          "internalType": "string",
          "name": "",
          "type": "string"
        },
        {
          "internalType": "string",
          "name": "",
          "type": "string"
        },
        {
          "internalType": "string",
          "name": "",
          "type": "string"
        }
      ],
      "payable": false,
      "stateMutability": "view",
      "type": "function"
    },
    {
      "constant": true,
      "inputs": [],
      "name": "totalConstituent",
      "outputs": [
        {
          "internalType": "uint256",
          "name": "",
          "type": "uint256"
        }
      ],
      "payable": false,
      "stateMutability": "view",
      "type": "function"
    },
    {
      "constant": false,
      "inputs": [],
      "name": "setConstituent",
      "outputs": [],
      "payable": false,
      "stateMutability": "nonpayable",
      "type": "function"
    },
    {
      "constant": true,
      "inputs": [
        {
          "internalType": "uint256",
          "name": "_constituentCode",
          "type": "uint256"
        }
      ],
      "name": "getConstituent",
      "outputs": [
        {
          "internalType": "uint256",
          "name": "",
          "type": "uint256"
        },
        {
          "internalType": "address",
          "name": "",
          "type": "address"
        }
      ],
      "payable": false,
      "stateMutability": "view",
      "type": "function"
    },
    {
      "constant": false,
      "inputs": [
        {
          "internalType": "uint256",
          "name": "_constituentCode",
          "type": "uint256"
        },
        {
          "internalType": "string",
          "name": "_parameterKey",
          "type": "string"
        },
        {
          "internalType": "string",
          "name": "_parameterValue",
          "type": "string"
        }
      ],
      "name": "setConstituentParameter",
      "outputs": [
        {
          "internalType": "bool",
          "name": "",
          "type": "bool"
        }
      ],
      "payable": false,
      "stateMutability": "nonpayable",
      "type": "function"
    },
    {
      "constant": true,
      "inputs": [
        {
          "internalType": "uint256",
          "name": "_constituentCode",
          "type": "uint256"
        }
      ],
      "name": "totalConstituentParameter",
      "outputs": [
        {
          "internalType": "uint256",
          "name": "",
          "type": "uint256"
        }
      ],
      "payable": false,
      "stateMutability": "view",
      "type": "function"
    },
    {
      "constant": true,
      "inputs": [
        {
          "internalType": "uint256",
          "name": "_constituentCode",
          "type": "uint256"
        },
        {
          "internalType": "uint256",
          "name": "_parameterCode",
          "type": "uint256"
        }
      ],
      "name": "getConstituentParameter",
      "outputs": [
        {
          "internalType": "string",
          "name": "",
          "type": "string"
        },
        {
          "internalType": "string",
          "name": "",
          "type": "string"
        },
        {
          "internalType": "string",
          "name": "",
          "type": "string"
        },
        {
          "internalType": "string",
          "name": "",
          "type": "string"
        }
      ],
      "payable": false,
      "stateMutability": "view",
      "type": "function"
    }
  ],
  "bytecode": "0x608060405234801561001057600080fd5b506122ce806100206000396000f3fe608060405234801561001057600080fd5b50600436106100f55760003560e01c8063b8f6786711610097578063d17342f411610066578063d17342f414610a77578063d23ef6a214610beb578063eb2b94b514610bf5578063ef0e239b14610d49576100f5565b8063b8f6786714610580578063bb286a85146106f0578063c95e54371461070e578063ccf451aa14610882576100f5565b80638cd105b4116100d35780638cd105b4146102b6578063994d3377146102f85780639da1e84d146104ed578063ad3eb5151461050b576100f5565b806302ea5d1a146100fa5780632f4a5cf3146101185780635820a70e1461015a575b600080fd5b610102610ed5565b6040518082815260200191505060405180910390f35b6101446004803603602081101561012e57600080fd5b8101908080359060200190929190505050610edf565b6040518082815260200191505060405180910390f35b6102b46004803603606081101561017057600080fd5b810190808035906020019064010000000081111561018d57600080fd5b82018360208201111561019f57600080fd5b803590602001918460018302840111640100000000831117156101c157600080fd5b91908080601f016020809104026020016040519081016040528093929190818152602001838380828437600081840152601f19601f8201169050808301925050505050505091929192908035906020019064010000000081111561022457600080fd5b82018360208201111561023657600080fd5b8035906020019184600183028401116401000000008311171561025857600080fd5b91908080601f016020809104026020016040519081016040528093929190818152602001838380828437600081840152601f19601f82011690508083019250505050505050919291929080359060200190929190505050610efc565b005b6102e2600480360360208110156102cc57600080fd5b8101908080359060200190929190505050611008565b6040518082815260200191505060405180910390f35b61032e6004803603604081101561030e57600080fd5b810190808035906020019092919080359060200190929190505050611025565b6040518080602001806020018060200180602001858103855289818151815260200191508051906020019080838360005b8381101561037a57808201518184015260208101905061035f565b50505050905090810190601f1680156103a75780820380516001836020036101000a031916815260200191505b50858103845288818151815260200191508051906020019080838360005b838110156103e05780820151818401526020810190506103c5565b50505050905090810190601f16801561040d5780820380516001836020036101000a031916815260200191505b50858103835287818151815260200191508051906020019080838360005b8381101561044657808201518184015260208101905061042b565b50505050905090810190601f1680156104735780820380516001836020036101000a031916815260200191505b50858103825286818151815260200191508051906020019080838360005b838110156104ac578082015181840152602081019050610491565b50505050905090810190601f1680156104d95780820380516001836020036101000a031916815260200191505b509850505050505050505060405180910390f35b6104f5611368565b6040518082815260200191505060405180910390f35b6105376004803603602081101561052157600080fd5b8101908080359060200190929190505050611371565b604051808381526020018273ffffffffffffffffffffffffffffffffffffffff1673ffffffffffffffffffffffffffffffffffffffff1681526020019250505060405180910390f35b6106ee600480360360a081101561059657600080fd5b81019080803590602001906401000000008111156105b357600080fd5b8201836020820111156105c557600080fd5b803590602001918460018302840111640100000000831117156105e757600080fd5b91908080601f016020809104026020016040519081016040528093929190818152602001838380828437600081840152601f19601f820116905080830192505050505050509192919290803590602001909291908035906020019064010000000081111561065457600080fd5b82018360208201111561066657600080fd5b8035906020019184600183028401116401000000008311171561068857600080fd5b91908080601f016020809104026020016040519081016040528093929190818152602001838380828437600081840152601f19601f82011690508083019250505050505050919291929080359060200190929190803590602001909291905050506113b5565b005b6106f8611583565b6040518082815260200191505060405180910390f35b6108686004803603606081101561072457600080fd5b81019080803590602001909291908035906020019064010000000081111561074b57600080fd5b82018360208201111561075d57600080fd5b8035906020019184600183028401116401000000008311171561077f57600080fd5b91908080601f016020809104026020016040519081016040528093929190818152602001838380828437600081840152601f19601f820116905080830192505050505050509192919290803590602001906401000000008111156107e257600080fd5b8201836020820111156107f457600080fd5b8035906020019184600183028401116401000000008311171561081657600080fd5b91908080601f016020809104026020016040519081016040528093929190818152602001838380828437600081840152601f19601f82011690508083019250505050505050919291929050505061158d565b604051808215151515815260200191505060405180910390f35b6108b86004803603604081101561089857600080fd5b810190808035906020019092919080359060200190929190505050611798565b6040518080602001806020018060200180602001858103855289818151815260200191508051906020019080838360005b838110156109045780820151818401526020810190506108e9565b50505050905090810190601f1680156109315780820380516001836020036101000a031916815260200191505b50858103845288818151815260200191508051906020019080838360005b8381101561096a57808201518184015260208101905061094f565b50505050905090810190601f1680156109975780820380516001836020036101000a031916815260200191505b50858103835287818151815260200191508051906020019080838360005b838110156109d05780820151818401526020810190506109b5565b50505050905090810190601f1680156109fd5780820380516001836020036101000a031916815260200191505b50858103825286818151815260200191508051906020019080838360005b83811015610a36578082015181840152602081019050610a1b565b50505050905090810190601f168015610a635780820380516001836020036101000a031916815260200191505b509850505050505050505060405180910390f35b610bd160048036036060811015610a8d57600080fd5b810190808035906020019092919080359060200190640100000000811115610ab457600080fd5b820183602082011115610ac657600080fd5b80359060200191846001830284011164010000000083111715610ae857600080fd5b91908080601f016020809104026020016040519081016040528093929190818152602001838380828437600081840152601f19601f82011690508083019250505050505050919291929080359060200190640100000000811115610b4b57600080fd5b820183602082011115610b5d57600080fd5b80359060200191846001830284011164010000000083111715610b7f57600080fd5b91908080601f016020809104026020016040519081016040528093929190818152602001838380828437600081840152601f19601f820116905080830192505050505050509192919290505050611adb565b604051808215151515815260200191505060405180910390f35b610bf3611ce6565b005b610c2160048036036020811015610c0b57600080fd5b8101908080359060200190929190505050611db5565b60405180868152602001806020018573ffffffffffffffffffffffffffffffffffffffff1673ffffffffffffffffffffffffffffffffffffffff16815260200180602001848152602001838103835287818151815260200191508051906020019080838360005b83811015610ca3578082015181840152602081019050610c88565b50505050905090810190601f168015610cd05780820380516001836020036101000a031916815260200191505b50838103825285818151815260200191508051906020019080838360005b83811015610d09578082015181840152602081019050610cee565b50505050905090810190601f168015610d365780820380516001836020036101000a031916815260200191505b5097505050505050505060405180910390f35b610d7560048036036020811015610d5f57600080fd5b8101908080359060200190929190505050611f85565b60405180888152602001806020018773ffffffffffffffffffffffffffffffffffffffff1673ffffffffffffffffffffffffffffffffffffffff168152602001866004811115610dc157fe5b60ff16815260200180602001856005811115610dd957fe5b60ff168152602001846005811115610ded57fe5b60ff168152602001838103835289818151815260200191508051906020019080838360005b83811015610e2d578082015181840152602081019050610e12565b50505050905090810190601f168015610e5a5780820380516001836020036101000a031916815260200191505b50838103825286818151815260200191508051906020019080838360005b83811015610e93578082015181840152602081019050610e78565b50505050905090810190601f168015610ec05780820380516001836020036101000a031916815260200191505b50995050505050505050505060405180910390f35b6000600254905090565b6000600a6000838152602001908152602001600020549050919050565b610f1260016000546121b290919063ffffffff16565b6000819055506040518060a0016040528060005481526020018481526020013373ffffffffffffffffffffffffffffffffffffffff168152602001838152602001828152506001600080548152602001908152602001600020600082015181600001556020820151816001019080519060200190610f919291906121cc565b5060408201518160020160006101000a81548173ffffffffffffffffffffffffffffffffffffffff021916908373ffffffffffffffffffffffffffffffffffffffff1602179055506060820151816003019080519060200190610ff59291906121cc565b5060808201518160040155905050505050565b600060046000838152602001908152602001600020549050919050565b606080606080600b6000878152602001908152602001600020858154811061104957fe5b9060005260206000209060040201600001600b6000888152602001908152602001600020868154811061107857fe5b9060005260206000209060040201600101600b600089815260200190815260200160002087815481106110a757fe5b9060005260206000209060040201600201600b60008a815260200190815260200160002088815481106110d657fe5b9060005260206000209060040201600301838054600181600116156101000203166002900480601f01602080910402602001604051908101604052809291908181526020018280546001816001161561010002031660029004801561117c5780601f106111515761010080835404028352916020019161117c565b820191906000526020600020905b81548152906001019060200180831161115f57829003601f168201915b50505050509350828054600181600116156101000203166002900480601f0160208091040260200160405190810160405280929190818152602001828054600181600116156101000203166002900480156112185780601f106111ed57610100808354040283529160200191611218565b820191906000526020600020905b8154815290600101906020018083116111fb57829003601f168201915b50505050509250818054600181600116156101000203166002900480601f0160208091040260200160405190810160405280929190818152602001828054600181600116156101000203166002900480156112b45780601f10611289576101008083540402835291602001916112b4565b820191906000526020600020905b81548152906001019060200180831161129757829003601f168201915b50505050509150808054600181600116156101000203166002900480601f0160208091040260200160405190810160405280929190818152602001828054600181600116156101000203166002900480156113505780601f1061132557610100808354040283529160200191611350565b820191906000526020600020905b81548152906001019060200180831161133357829003601f168201915b50505050509050935093509350935092959194509250565b60008054905090565b600080826009600085815260200190815260200160002060010160009054906101000a900473ffffffffffffffffffffffffffffffffffffffff1691509150915091565b6113cb60016002546121b290919063ffffffff16565b6002819055506040518060e0016040528060025481526020018681526020013373ffffffffffffffffffffffffffffffffffffffff16815260200185600481111561141257fe5b600481111561141d57fe5b815260200184815260200183600581111561143457fe5b600581111561143f57fe5b815260200182600581111561145057fe5b600581111561145b57fe5b8152506003600060025481526020019081526020016000206000820151816000015560208201518160010190805190602001906114999291906121cc565b5060408201518160020160006101000a81548173ffffffffffffffffffffffffffffffffffffffff021916908373ffffffffffffffffffffffffffffffffffffffff16021790555060608201518160020160146101000a81548160ff0219169083600481111561150557fe5b021790555060808201518160030190805190602001906115269291906121cc565b5060a08201518160040160006101000a81548160ff0219169083600581111561154b57fe5b021790555060c08201518160040160016101000a81548160ff0219169083600581111561157457fe5b02179055509050505050505050565b6000600854905090565b60006003600085815260200190815260200160002060020160009054906101000a900473ffffffffffffffffffffffffffffffffffffffff1673ffffffffffffffffffffffffffffffffffffffff163373ffffffffffffffffffffffffffffffffffffffff16141561178c5761160161224c565b60405180608001604052808581526020018481526020016040518060400160405280600181526020017f200000000000000000000000000000000000000000000000000000000000000081525081526020016040518060400160405280600181526020017f200000000000000000000000000000000000000000000000000000000000000081525081525090506116b5600160046000888152602001908152602001600020546121b290919063ffffffff16565b600460008781526020019081526020016000208190555060056000868152602001908152602001600020819080600181540180825580915050906001820390600052602060002090600402016000909192909190915060008201518160000190805190602001906117279291906121cc565b5060208201518160010190805190602001906117449291906121cc565b5060408201518160020190805190602001906117619291906121cc565b50606082015181600301908051906020019061177e9291906121cc565b505050506001915050611791565b600090505b9392505050565b6060806060806005600087815260200190815260200160002085815481106117bc57fe5b90600052602060002090600402016000016005600088815260200190815260200160002086815481106117eb57fe5b906000526020600020906004020160010160056000898152602001908152602001600020878154811061181a57fe5b9060005260206000209060040201600201600560008a8152602001908152602001600020888154811061184957fe5b9060005260206000209060040201600301838054600181600116156101000203166002900480601f0160208091040260200160405190810160405280929190818152602001828054600181600116156101000203166002900480156118ef5780601f106118c4576101008083540402835291602001916118ef565b820191906000526020600020905b8154815290600101906020018083116118d257829003601f168201915b50505050509350828054600181600116156101000203166002900480601f01602080910402602001604051908101604052809291908181526020018280546001816001161561010002031660029004801561198b5780601f106119605761010080835404028352916020019161198b565b820191906000526020600020905b81548152906001019060200180831161196e57829003601f168201915b50505050509250818054600181600116156101000203166002900480601f016020809104026020016040519081016040528092919081815260200182805460018160011615610100020316600290048015611a275780601f106119fc57610100808354040283529160200191611a27565b820191906000526020600020905b815481529060010190602001808311611a0a57829003601f168201915b50505050509150808054600181600116156101000203166002900480601f016020809104026020016040519081016040528092919081815260200182805460018160011615610100020316600290048015611ac35780601f10611a9857610100808354040283529160200191611ac3565b820191906000526020600020905b815481529060010190602001808311611aa657829003601f168201915b50505050509050935093509350935092959194509250565b60006009600085815260200190815260200160002060010160009054906101000a900473ffffffffffffffffffffffffffffffffffffffff1673ffffffffffffffffffffffffffffffffffffffff163373ffffffffffffffffffffffffffffffffffffffff161415611cda57611b4f61224c565b60405180608001604052808581526020018481526020016040518060400160405280600181526020017f200000000000000000000000000000000000000000000000000000000000000081525081526020016040518060400160405280600181526020017f20000000000000000000000000000000000000000000000000000000000000008152508152509050611c036001600a6000888152602001908152602001600020546121b290919063ffffffff16565b600a600087815260200190815260200160002081905550600b600086815260200190815260200160002081908060018154018082558091505090600182039060005260206000209060040201600090919290919091506000820151816000019080519060200190611c759291906121cc565b506020820151816001019080519060200190611c929291906121cc565b506040820151816002019080519060200190611caf9291906121cc565b506060820151816003019080519060200190611ccc9291906121cc565b505050506001915050611cdf565b600090505b9392505050565b611cfc60016008546121b290919063ffffffff16565b6008819055506000600a6000600854815260200190815260200160002081905550604051806040016040528060085481526020013373ffffffffffffffffffffffffffffffffffffffff168152506009600060085481526020019081526020016000206000820151816000015560208201518160010160006101000a81548173ffffffffffffffffffffffffffffffffffffffff021916908373ffffffffffffffffffffffffffffffffffffffff160217905550905050565b6000606060006060600085600160008881526020019081526020016000206001016001600089815260200190815260200160002060020160009054906101000a900473ffffffffffffffffffffffffffffffffffffffff16600160008a8152602001908152602001600020600301600160008b815260200190815260200160002060040154838054600181600116156101000203166002900480601f016020809104026020016040519081016040528092919081815260200182805460018160011615610100020316600290048015611ecf5780601f10611ea457610100808354040283529160200191611ecf565b820191906000526020600020905b815481529060010190602001808311611eb257829003601f168201915b50505050509350818054600181600116156101000203166002900480601f016020809104026020016040519081016040528092919081815260200182805460018160011615610100020316600290048015611f6b5780601f10611f4057610100808354040283529160200191611f6b565b820191906000526020600020905b815481529060010190602001808311611f4e57829003601f168201915b505050505091509450945094509450945091939590929450565b60006060600080606060008087600360008a8152602001908152602001600020600101600360008b815260200190815260200160002060020160009054906101000a900473ffffffffffffffffffffffffffffffffffffffff16600360008c815260200190815260200160002060020160149054906101000a900460ff16600360008d8152602001908152602001600020600301600360008e815260200190815260200160002060040160009054906101000a900460ff16600360008f815260200190815260200160002060040160019054906101000a900460ff16858054600181600116156101000203166002900480601f0160208091040260200160405190810160405280929190818152602001828054600181600116156101000203166002900480156120f65780601f106120cb576101008083540402835291602001916120f6565b820191906000526020600020905b8154815290600101906020018083116120d957829003601f168201915b50505050509550828054600181600116156101000203166002900480601f0160208091040260200160405190810160405280929190818152602001828054600181600116156101000203166002900480156121925780601f1061216757610100808354040283529160200191612192565b820191906000526020600020905b81548152906001019060200180831161217557829003601f168201915b505050505092509650965096509650965096509650919395979092949650565b60008183019050828110156121c357fe5b80905092915050565b828054600181600116156101000203166002900490600052602060002090601f016020900481019282601f1061220d57805160ff191683800117855561223b565b8280016001018555821561223b579182015b8281111561223a57825182559160200191906001019061221f565b5b5090506122489190612274565b5090565b6040518060800160405280606081526020016060815260200160608152602001606081525090565b61229691905b8082111561229257600081600090555060010161227a565b5090565b9056fea265627a7a72315820dd1532ff023be2fa29214648daad92a813237b3b5dca9195bd9e5464e572cb0a64736f6c63430005100032",
  "source": "pragma solidity  >=0.5.16 <0.7.0;\r\n\r\nlibrary SafeMath {\r\n    function add(uint256 a, uint256 b) internal pure returns (uint256 c) {\r\n        c = a + b;\r\n        assert(c >= a);\r\n        return c;\r\n    }\r\n    function sub(uint256 a, uint256 b) internal pure returns (uint256) {\r\n        assert(b <= a);\r\n        return a - b;\r\n    }\r\n    function mul(uint256 a, uint256 b) internal pure returns (uint256 c) {\r\n        if (a == 0) {\r\n            return 0;\r\n        }\r\n        c = a * b;\r\n        assert(c / a == b);\r\n        return c;\r\n    }\r\n    function div(uint256 a, uint256 b) internal pure returns (uint256) {\r\n        assert(b>0);\r\n        return a / b;\r\n    }\r\n}\r\n\r\ncontract MissionsSoS{\r\n    \r\n    using SafeMath for uint;\r\n\r\n    enum HTTPMethod  {GET, POST, PATCH, PUT, DELETE}\r\n    enum ContentType {none, data, URL_encoded, raw, binary, GraphQL}\r\n    enum RAWDataType {none, Text, JavaScript, JSON, HTML, XML}\r\n\r\n   struct Mission {\r\n        uint missionCode;\r\n        string missionDescription;\r\n        address missionOwner;\r\n        string missionTag;\r\n        uint missionCodeFather;\r\n    }\r\n\r\n    struct Parameter {\r\n        string parameterKey;\r\n        string parameterValue;\r\n        string parameterDescription;\r\n        string parameterContentType;\r\n    }\r\n\r\n    struct Constituent {\r\n        uint constituentCode;\r\n        address constituentOwner;\r\n    }\r\n\r\n    struct Service {\r\n        uint serviceCode;\r\n        string serviceDescription;\r\n        address serviceOwner;\r\n        HTTPMethod serviceHTTPMethod;\r\n        string serviceURL;\r\n        ContentType serviceContentType;\r\n        RAWDataType serviceRAWDataType;\r\n    }\r\n    \r\n    //--------Mission---------\r\n    uint private _totalMission;\r\n    mapping(uint => Mission) private missionMap;\r\n \r\n    //---------Service-------\r\n    uint private _totalService;\r\n    mapping(uint => Service) private serviceMap;\r\n    //-------Service Parameter-------\r\n    mapping(uint => uint) private _totalServiceParameter;\r\n    mapping(uint => Parameter[]) private serviceParameterMap;\r\n    //-------Service Mission-------\r\n    mapping(uint => uint) private _totalServiceMission;\r\n    mapping(uint => Mission[]) private serviceMissionMap;\r\n \r\n    //-------Constituent-------\r\n    uint private _totalConstituent;\r\n    mapping(uint => Constituent) private constituentMap;\r\n    //--Constituent Parameter--\r\n    mapping(uint => uint) private _totalConstituentParameter;\r\n    mapping(uint => Parameter[]) private constituentParameterMap;\r\n    //---Constituent Service---\r\n    mapping(uint => uint) private _totalConstituentService;\r\n    mapping(uint => Service[]) private constituentServiceMap;\r\n \r\n    \r\n    constructor() public {\r\n\r\n    }\r\n    \r\n    \r\n    //--------Mission---------\r\n        \r\n    function totalMission() public view returns (uint) {\r\n        return _totalMission;\r\n    }\r\n    \r\n    function setMission(string memory _missionDescription, string memory _missionTag, uint _missionCodeFather) public {\r\n        _totalMission = _totalMission.add(1);\r\n        missionMap[_totalMission] = Mission(_totalMission, _missionDescription, msg.sender, _missionTag, _missionCodeFather);\r\n    }\r\n    \r\n    function getMission(uint  _missionCode) public view returns (uint, string memory, address, string memory, uint) {\r\n        return (_missionCode, \r\n            missionMap[_missionCode].missionDescription,\r\n            missionMap[_missionCode].missionOwner,\r\n            missionMap[_missionCode].missionTag,\r\n            missionMap[_missionCode].missionCodeFather\r\n        );\r\n    }\r\n \r\n     //---------Service-------\r\n    \r\n    function totalService() public view returns (uint) {\r\n        return _totalService;\r\n    }\r\n    \r\n    function setService(string memory _serviceDescription, uint _serviceHTTPMethod, \r\n        string memory serviceURL, uint _serviceContentType, uint _serviceRAWDataType) public {\r\n        _totalService = _totalService.add(1);\r\n        serviceMap[_totalService] = Service(_totalService, _serviceDescription, msg.sender, \r\n        HTTPMethod(_serviceHTTPMethod), serviceURL, ContentType(_serviceContentType), RAWDataType(_serviceRAWDataType));\r\n    }\r\n    \r\n    function getService(uint  _serviceCode) public view returns (uint, string memory, address, HTTPMethod, string memory, ContentType, RAWDataType) {\r\n        return (_serviceCode, \r\n            serviceMap[_serviceCode].serviceDescription,\r\n            serviceMap[_serviceCode].serviceOwner,\r\n            serviceMap[_serviceCode].serviceHTTPMethod,\r\n            serviceMap[_serviceCode].serviceURL,\r\n            serviceMap[_serviceCode].serviceContentType,\r\n            serviceMap[_serviceCode].serviceRAWDataType\r\n        );\r\n    }    \r\n    \r\n    //-------Service Parameter-------\r\n    \r\n    function setServiceParameter(uint  _serviceCode, string memory _parameterKey, \r\n        string memory _parameterValue) public returns (bool) {\r\n        if(msg.sender==serviceMap[_serviceCode].serviceOwner)\r\n        {\r\n            MissionsSoS.Parameter memory parameter = Parameter(_parameterKey, _parameterValue, \" \", \" \");\r\n            _totalServiceParameter[_serviceCode]=_totalServiceParameter[_serviceCode].add(1);\r\n            serviceParameterMap[_serviceCode].push(parameter);\r\n            return true;\r\n        }else\r\n        {\r\n            return false;\r\n        }\r\n    }\r\n    \r\n    function totalServiceParameter(uint _serviceCode) public view returns (uint) {\r\n        return _totalServiceParameter[_serviceCode];\r\n    }\r\n    \r\n    function getServiceParameter(uint  _serviceCode, uint _parameterCode) public view \r\n        returns (string memory, string memory, string memory, string memory) {\r\n\r\n        return (serviceParameterMap[_serviceCode][_parameterCode].parameterKey,\r\n            serviceParameterMap[_serviceCode][_parameterCode].parameterValue,\r\n            serviceParameterMap[_serviceCode][_parameterCode].parameterDescription,\r\n            serviceParameterMap[_serviceCode][_parameterCode].parameterContentType\r\n        );\r\n    }\r\n\r\n    \r\n    //-------Constituent-------\r\n    \r\n    function totalConstituent() public view returns (uint) {\r\n        return _totalConstituent;\r\n    }\r\n    \r\n    function setConstituent() public {\r\n        _totalConstituent = _totalConstituent.add(1);\r\n        _totalConstituentParameter[_totalConstituent]=0;\r\n        constituentMap[_totalConstituent] = Constituent(_totalConstituent, msg.sender);\r\n    }\r\n    \r\n    function getConstituent(uint  _constituentCode) public view returns (uint, address) {\r\n        return (_constituentCode, constituentMap[_constituentCode].constituentOwner);\r\n    }\r\n    \r\n    //--Constituent Parameter--\r\n    \r\n    function setConstituentParameter(uint  _constituentCode, string memory _parameterKey, \r\n        string memory _parameterValue) public returns (bool) {\r\n        if(msg.sender==constituentMap[_constituentCode].constituentOwner)\r\n        {\r\n            MissionsSoS.Parameter memory parameter = Parameter(_parameterKey, _parameterValue, \" \", \" \");\r\n            _totalConstituentParameter[_constituentCode]=_totalConstituentParameter[_constituentCode].add(1);\r\n            constituentParameterMap[_constituentCode].push(parameter);\r\n            return true;\r\n        }else\r\n        {\r\n            return false;\r\n        }\r\n    }\r\n    \r\n    function totalConstituentParameter(uint _constituentCode) public view returns (uint) {\r\n        return _totalConstituentParameter[_constituentCode];\r\n    }\r\n    \r\n    function getConstituentParameter(uint  _constituentCode, uint _parameterCode) public view \r\n        returns (string memory, string memory, string memory, string memory) {\r\n\r\n        return (constituentParameterMap[_constituentCode][_parameterCode].parameterKey,\r\n            constituentParameterMap[_constituentCode][_parameterCode].parameterValue,\r\n            constituentParameterMap[_constituentCode][_parameterCode].parameterDescription,\r\n            constituentParameterMap[_constituentCode][_parameterCode].parameterContentType\r\n        );\r\n    }\r\n    \r\n\r\n}",
  "sourcePath": "D:\\Misiones_Services_Contract\\contracts\\MissionsSoS.sol",
  "compiler": {
    "name": "solc",
    "version": "0.5.16+commit.9c3226ce.Emscripten.clang"
  },
  "schemaVersion": "3.0.23",
  "updatedAt": "2020-02-25T15:06:14.969Z",
  "networkType": "ethereum",
  "devdoc": {
    "methods": {}
  },
  "userdoc": {
    "methods": {}
  }
}